:100000006F206005130000001300000013000000C3
:100010001300000013000000130000001300000094
:100020001300000013000000130000001300000084
:08003000130000007300100032
:100038000000000000000000A01A00005A1B000089
:10004800000000009C1F00000000000000000000ED
:100058009E1F0000A01F000000000000000000001C
:10006800A21F000000000000A41F00000000000004
:10007800A61F0000A81F0000AA1F0000AC1F000058
:10008800AE1F0000B01F0000B21F0000B41F000028
:10009800B61F0000B81F0000BA1F0000BC1F0000F8
:1000A800BE1F0000C01F0000C21F0000C41F0000C8
:1000B800C61F0000C81F0000CA1F0000CC1F000098
:1000C800CE1F0000D01F0000D21F0000D41F000068
:1000D800D61F0000D81F0000DA1F0000DC1F000038
:1000E800B01A0000E01F0000E21F0000E41F00003B
:1000F800E61F0000E81F0000EA1F0000EC1F0000D8
:10010800EE1F0000F01F0000F21F0000F41F0000A7
:10011800F61F0000F81F0000FA1F0000FC1F000077
:10012800FE1F000000200000022000000420000044
:1001380006200000082000000A2000000C20000013
:100148000E200000102000001220000014200000E3
:1001580016200000182000001A2000001C200000B3
:100168001E20000020200000222000002420000083
:1001780026200000282000002A2000002C20000053
:100188002E2000003205000032200000342000003C
:1001980036200000382000003A2000003C200000F3
:1001A8003E200000402000004220000044200000C3
:1001B80046200000482000004A2000004C20000093
:1001C8004E20000050200000522000005420000063
:1001D8000000000000000000000000000000000017
:1001E8000000000000000000000000000000000007
:0801F8000000000000000000FF
:100200003D432A876373C3029377F700BDEFADE5E3
:10021000937606FF3D8ABA960CC34CC30CC74CC7F5
:100220004107E36BD7FE11E28280B306C3408A0622
:100230009702000096966780A6002307B700A306E2
:10024000B7002306B700A305B7002305B700A30432
:10025000B7002304B700A303B7002303B700A3022A
:10026000B7002302B700A301B7002301B700A30022
:10027000B7002300B700828093F5F50F93968500B1
:10028000D58D93960501D58D61B79396270097027A
:10029000000096968682E78086FA9680C1171D8FA9
:1002A0003E96E374C3F8A5B7011122CE00102326B1
:1002B000A4FE8327C4FEFD8B0547B316F70037E77E
:1002C00000E08327C4FE9583938707048A07BA97C3
:1002D00094C30100724405618280011122CE001096
:1002E0002326A4FE8327C4FEFD8B0547B316F70023
:1002F00037E700E08327C4FE9583938707068A07C4
:10030000BA9794C30100724405618280411106C608
:1003100022C400080545EF2050200145EF2070144D
:100320000545EF2050100545EF2070170545EF20DB
:10033000D01A8545856713850780EF20E078010096
:10034000B240224441018280011122CE0010B73711
:1003500002409387074037070C00310798CBB73727
:1003600002409387074013070004239CE708B73730
:10037000024093870740130700202390E70AB7370E
:10038000024093870740130700202392E70AB737FC
:10039000024093870740370700201307C714D8CFC0
:1003A000B737024093870740138741A898D7B737DC
:1003B000024093870740138701CCD8D3B737024058
:1003C00093870740370700201307C718B8D3B737FC
:1003D000024093870740239C070CB737024093875E
:1003E00007400947238DE70CB73702409387074042
:1003F000A38D070CB7370240938707402390070E61
:10040000B73702409387074009472381E70EB73784
:10041000024093870740A381070EB73702409387B6
:1004200007402392070EB7370240938707400947DA
:100430002383E70EB737024093870740A383070E55
:10044000A30704FE29A80347F4FE938741C8BA977F
:10045000238007008347F4FE8507A307F4FE0347C4
:10046000F4FEBD47E3F1E7FE0100724405618280BE
:10047000011106CE22CC00102326A4FE8327C4FE41
:10048000D1C3B737024093870740194798A329453E
:10049000EF306001B7370240938707409C2313F782
:1004A000F70FB7370240938707406D9B1377F70F1D
:1004B00098A3B737024093870740414798B3B737AF
:1004C0000240938707401307900298A3B737024072
:1004D0009387074013077002B8A3BD35B7370240B2
:1004E000938707409C2313F7F70FB7370240938792
:1004F0000740136707011377F70F98A313055005FB
:1005000065331DA0B737024093870740194798A36A
:100510002945EF205079B737024093870740238061
:10052000070013055005553B0100F2406244056188
:100530008280011122CE0010B73702409387074016
:10054000BC27A305F4FEB737024093870740BC37AA
:100550002305F4FE8347B4FE898B638D07488347E8
:10056000A4FE93F707034147638DE7461307000294
:100570006385E70063890720B5A18347A4FE93F74D
:10058000F703130720026388E71013073002638024
:10059000E718130700026394E71E83D72182C2077E
:1005A000C18381EBB7370240938707402147A38D72
:1005B000E70C83C7D18193F7F70F93F70706639290
:1005C000071C83C7C18193F7F70F15476383E70AB9
:1005D0001947639AE70A83D721821397070141835A
:1005E0009307F00363E7E70083D72182C207C18343
:1005F00019A0930700042316F4FE83A781810357F3
:10060000C4FE3A86BE85B70700201385C714EF30B5
:10061000000783D721821397070141838357C4FEC4
:10062000B307F7401397070141832391E18203A7A2
:1006300081818357C4FE3E9723ACE180B7370240E7
:10064000938707400357C4FE239CE70CB73702404B
:100650009387074083C7A70D13F7F70FB7370240FB
:1006600093870740134787001377F70F238DE70C15
:1006700015A0B73702409387074003C7518213770D
:10068000F70FB8B301A8B737024093870740239C00
:10069000070C0100FDA0B73702409387074083C7CE
:1006A000270E93F7F70FE207E187F19BE207E18757
:1006B00093E72700139787016187B7370240938735
:1006C00007401377F70F2381E70EB7370240938770
:1006D000074083C7270E13F7F70FB73702409387FA
:1006E0000740134787001377F70F2381E70E93879F
:1006F00041C8BC2393F7F70FF99B13F7F70F9387C4
:1007000041C8B8A3938741C9238C0700A5A8B73770
:1007100002409387074083C7670E93F7F70FE207FE
:10072000E187F19BE207E18793E7270013978701B1
:100730006187B7370240938707401377F70F23830A
:10074000E70EB73702409387074083C7670E13F75A
:10075000F70FB73702409387074013478700137797
:10076000F70F2383E70E938741C8BC3393F7F70F46
:10077000F99B13F7F70F938741C8B8B321A0010085
:1007800095A4010085A48347A4FE93F7F70389C7C6
:1007900009476380E71681A4B73702409387074073
:1007A000D8271377F70FDC3793F7F70FA207D98F06
:1007B0002316F4FE8347A4FE93F707046381072200
:1007C00083C7D18193F7F70F93F70706638F070E5F
:1007D0002391018283C7C18113F7F70F93070002AA
:1007E0006315F70EB707002003C7C714938741C9E5
:1007F000F8AFB70700209387C7149833938741C990
:10080000F8BFB70700209387C714B823938741C95F
:100810002380E702B70700209387C714B833938774
:1008200041C9A380E702B70700209387C714D823E4
:10083000938741C92381E702B70700209387C71434
:10084000D833938741C9A381E702B7070020938774
:10085000C714F823938741C92382E702938741C9CC
:100860007947A382E702B707002083C7C714232272
:10087000F4FEB70700209387C7149C33A207032711
:1008800044FEBA972322F4FEB70700209387C714CB
:10089000BC23C207032744FEBA972322F4FEB707FE
:1008A00000209387C714BC33E207032744FEBA979E
:1008B0002322F4FE938741C9FC3313F7F70F938784
:1008C00041C9A382E702EF10800083D72182C207CB
:1008D000C18363960710B737024093870740239C74
:1008E000070CB7370240938707402147238DE70C59
:1008F000FDA0B73702409387074083C7370E13F731
:10090000F70FB737024093870740134787001377E5
:10091000F70FA381E70EB73702401387074093868E
:1009200041C9942693F6F60F938741C99C3793F7F4
:10093000F70FA207D58FC207C183BE865E27139724
:10094000070141838606938741C9B6979375F70FD0
:10095000F427818A3686AE86D18EF4A721831316BA
:1009600007014182F837018BBA863287558FF8B775
:10097000138741C918271377F70F938741C99C370D
:1009800093F7F70FA207D98FC207C1838507139783
:1009900007014183938741C99375F70F9427818A93
:1009A0003686AE86D18E94A7218313160701418225
:1009B0009837018BBA863287558F98B7B737024080
:1009C00093870740372700201307879CD8D3054714
:1009D000238AE18231A0FD57A307F4FE11A0010094
:1009E00011A00100B7370240938707400947B8A715
:1009F0006F0030168347B4FE93F70702E38D070AB2
:100A0000B7370240938707402947238DE70CB73754
:100A10000240938707402947A38DE70CB7070020C2
:100A20009387C7149823A38EE180B707002093878C
:100A3000C7149833238EE180B70700209387C7142B
:100A4000F823FC33A207D98F139707014183239121
:100A5000E182B70700209387C714B823BC33A207ED
:100A6000D98F139707014183239FE180B7070020A7
:100A70009387C714D823DC33A207D98F13970701B4
:100A800041832390E182231604FEA30704FE83C75B
:100A9000D18193F7F70F93F70706E9C783C7D18191
:100AA00093F7F70F93F70702A1CB83C7C18193F7A1
:100AB000F70F130710026384E7021307100263475E
:100AC000F700130700026384E70415A01307200250
:100AD0006381E70413073002638FE70209A81387D5
:100AE00021CB23ACE1809D472316F4FE35A0FD57B2
:100AF000A307F4FE01000DA083C7D18193F7F70F80
:100B000093F7070491EBFD57A307F4FE31A0010012
:100B100021A0010011A0010083D7218213970701B2
:100B200041839307F00363E7E70083D72182C2077D
:100B3000C18319A0930700042316F4FE83A78181C3
:100B40000357C4FE3A86BE85B70700201385C71435
:100B5000EF20F03203A781818357C4FE3E9723AC78
:100B6000E1809DAD83C7C18193F7F70F2D47636A7D
:100B7000F7641397270095679387C79BBA979C43A1
:100B8000828783D7E181C207C183A183C207C18362
:100B900093F7F70F3D476363F72613972700956791
:100BA0009387C79EBA979C43828715671307C7A28E
:100BB00023ACE180956783C7C7A22316F4FE99A4EE
:100BC000B7370240938707409C2793F7F70F13F737
:100BD00037008547631AF70005472384E18213072E
:100BE00000202393E18239A02384018213070004AB
:100BF0002393E18283C7818213F7F70F8547631B35
:100C0000F7021567130747A823ACE1809567938720
:100C100047A8BC231397070141839567938747A88B
:100C2000BC33C207C183A207C207C183BA97231688
:100C3000F4FEC9AA1567130707A423ACE1809567E2
:100C4000938707A4BC231397070141839567938774
:100C500007A4BC33C207C183A207C207C183BA97E6
:100C60002316F4FE45A283D7E181C207C18393F71F
:100C7000F70F05476387E70205476344F70089CB11
:100C800095A00947638AE7020D476382E70499A8A4
:100C90001387018123ACE18083C701812316F4FE11
:100CA000B1A01567130787AC23ACE180956783C7B4
:100CB00087AC2316F4FE1DA81567130787AD23AC78
:100CC000E180956783C787AD2316F4FE05A01567FD
:100CD000130707AF23ACE180956783C707AF2316DF
:100CE000F4FE29A0FD57A307F4FE010021AA156711
:100CF000130787B023ACE180956783C787B02316BD
:100D0000F4FE09A2FD57A307F4FEEDA883C7818274
:100D100013F7F70F85476316F7069567938707A4C0
:100D2000BC233E879567938707A4BC33C207C18362
:100D3000A207C207C183BA97F9173E8695679385C4
:100D400027A4B707002013856704EF205013370747
:100D500000201307470423ACE1809567938707A41D
:100D6000BC231397070141839567938707A4BC337E
:100D7000C207C183A207C207C183BA972316F4FE34
:100D800051A083C7818293F7F70FADE795679387EB
:100D900047A8BC233E879567938747A8BC33C20703
:100DA000C183A207C207C183BA97F9173E86956728
:100DB000938567A8B707002013852700EF20300C24
:100DC000370700201307070023ACE180956793875E
:100DD00047A8BC231397070141839567938747A8CA
:100DE000BC33C207C183A207C207C183BA972316C7
:100DF000F4FE09A8FD57A307F4FE29A0FD57A30799
:100E0000F4FE010083D72182C207C1830357C4FEC9
:100E10006376F7000357C4FE2391E18283D72182D2
:100E20001397070141839307F00363E7E70083D734
:100E30002182C207C18319A0930700042316F4FE80
:100E400083A781810357C4FE3A86BE85B707002079
:100E50001385C714EF20B00203A781818357C4FE16
:100E60003E9723ACE1808DAE83D7E181C207C18379
:100E700013F7F70FA382E18285A683C7418213F798
:100E8000F70FB70700202386E71483D72182139733
:100E900007014183854763FCE73205472391E182DF
:100EA0003DA683D7E181C207C18313F7F70F2382E1
:100EB000E18205472385E18205A683C7D18193F7A7
:100EC000F70FFD8B85EB83D7E181C207C18313F751
:100ED000F70F8547631CF70083C7918293F7F70FDD
:100EE000F99B13F7F70FA384E182FDA4FD57A30735
:100EF000F4FEDDA483C7D18193F7F70F13F7F70151
:100F00008947631BF70683D7E181C207C18393F743
:100F1000F70FB9EF83D70182C207C18393F7F70FA9
:100F200013072008638AE700130730086385E70288
:100F30000947638BE70005A8B7370240938707404E
:100F400009472381E70E2DA8B73702409387074052
:100F5000A381070E35A0B7370240938707400947A2
:100F60002383E70E31A8FD57A307F4FE010009A86B
:100F7000FD57A307F4FE8DA4FD57A307F4FEA9AC0B
:100F8000A1AC83C7D18193F7F70FFD8BA1E783D77E
:100F9000E181C207C18313F7F70F85476318F70292
:100FA0009567938707A4FC3393F7070281CF83C724
:100FB000918293F7F70F93E7170013F7F70FA384C6
:100FC000E18219ACFD57A307F4FE39A4FD57A3072E
:100FD000F4FE19A483C7D18193F7F70F13F7F70134
:100FE00089476318F70A83D7E181C207C18393F762
:100FF000F70FC5E383D70182C207C18393F7F70FC9
:1010000013072008638AE70013073008638CE7049E
:1010100009476386E70295A8B737024093870740E0
:1010200083C7270E13F7F70FB737024093870740A0
:10103000136737001377F70F2381E70EA1A8B7379F
:1010400002409387074083C7370E13F7F70FB73770
:10105000024093870740136737001377F70FA38188
:10106000E70E0DA8B73702409387074083C7670E86
:1010700013F7F70FB737024093870740136737001E
:101080001377F70F2383E70E31A0FD57A307F4FE74
:1010900011A0010091A2B70700202386071483D76F
:1010A0002182139707014183854763F4E7120547BF
:1010B0002391E18239AAB707002023860714B707D6
:1010C00000209387C714A380070083C7D18193F7BB
:1010D000F70F13F7F70189476312F70A83D70182E5
:1010E000C207C18393F7F70F13072008638AE7004D
:1010F00013073008638CE70409476386E70295A865
:10110000B73702409387074083C7270E93F7F70F3F
:1011100013F737008D476315F708B7070020054719
:101120002386E714B5A8B73702409387074083C7E3
:10113000370E93F7F70F13F737008D476314F70651
:10114000B707002005472386E714A9A8B737024050
:101150009387074083C7670E93F7F70F13F737009E
:101160008D476313F704B707002005472386E7146C
:1011700025A8FD57A307F4FE010005A883C7D18168
:1011800093F7F70FFD8B95E383C7918293F7F70FE2
:10119000858B81CFB707002009472386E71431A04C
:1011A000010021A0010011A0010083D72182139723
:1011B00007014183894763F0E70209472391E182F0
:1011C00019A8FD57A307F4FE01A8010031A00100F2
:1011D00021A0010011A001000347F4FE9307F00FC6
:1011E0006311F702B7370240938707402D47238DDD
:1011F000E70CB7370240938707402D47A38DE70CD4
:101200005DA083C7D18193F7F70FE207E18763D22F
:10121000070683D7218213970701418393070004B0
:1012200063E7E70083D72182C207C18319A0930730
:1012300000042316F4FE83D721821397070141830C
:101240008357C4FEB307F7401397070141832391E7
:10125000E182B7370240938707400357C4FE239CBF
:10126000E70CB7370240938707402147238DE70CEF
:101270001DA883D72182C207C18399EFB7370240E7
:1012800093870740239C070CB7370240938707409A
:101290002147238DE70C01A8B73702409387074009
:1012A0002147A38DE70CB737024093870740130708
:1012B0000002B8A779A88347B4FE858B95CB23821B
:1012C0000182A3820182A384018223850182B73730
:1012D000024093870740A3810700EFF0EF860545A2
:1012E000012EB7370240938707400547B8A795A05E
:1012F0008347B4FE918BB9C7B73702409387074045
:101300001147B8A7B7370240938707409C3793F738
:10131000F70F918B91CF83C7918293F7F70F93E7E4
:10132000270013F7F70FA384E18283C7918215A0EA
:1013300083C7918293F7F70FF59B13F7F70FA384F9
:10134000E18201A8B7370240938707400347B4FE04
:10135000B8A701007244056173002030011122CE4C
:1013600000102326A4FE8327C4FEFD8B0547B31679
:10137000F70037E700E08327C4FE958393870704CF
:101380008A07BA9794C301007244056182804111B3
:1013900006C622C4000885451145EF1040778545F3
:1013A00037050200EF10007B85450545EF10807A78
:1013B00085450545EF10407181473E85B240224486
:1013C00041018280011106CE22CC0010232204FEAE
:1013D000232404FE231604FE37050040EF10D01727
:1013E000930730062314F4FEB707002003A78710E5
:1013F000B7470F0093870724B357F702C207C1838B
:10140000FD17C207C1832312F4FE231504FE231324
:1014100004FE930744FEBE8537050040EF105028B8
:10142000854537050040EF10B0490546854537052D
:101430000040EF1070421305C0020D378545370597
:101440000040EF10703C0100F24062440561828070
:10145000397106DE22DC80002326A4FCAE873287A9
:10146000A305F4FCBA872305F4FC232E04FC2320F7
:1014700004FE232204FE232404FE232804FC232A42
:1014800004FC232C04FC9145B71701401385078009
:10149000EF10802891472318F4FC8D47232AF4FC91
:1014A000C147232CF4FC930704FDBE85B717014008
:1014B00013850780EF102004B7470040938707404B
:1014C000DE27139707014183B74700409387074002
:1014D0004D9B42074183DAA7A1472318F4FC9307E9
:1014E0008004232CF4FC930704FDBE85B71701404C
:1014F00013850780EF10200091472318F4FC8D47D7
:10150000232AF4FCE147232CF4FC930704FDBE8559
:10151000B717014013850780EF00F07DE1772318AE
:10152000F4FC8D47232AF4FCC147232CF4FC9307D9
:1015300004FDBE85B717014013850780EF00B07B1F
:101540008327C4FC232EF4FC231004FE0347B4FCC1
:1015500085476316F7008D672311F4FE21A8034722
:10156000B4FC89476316F70089672311F4FE19A0BC
:10157000231104FE0347A4FC8547631AF700930771
:1015800000602312F4FE85672310F4FE05A00347D4
:10159000A4FC8947631AF700930700402312F4FE66
:1015A00085672310F4FE19A0231204FE231404FE01
:1015B000B1472313F4FE9307C4FDBE85B74700402F
:1015C00013850740EF10903293050004B7470040A1
:1015D00013850740EF1010668545B7470040138517
:1015E0000740EF1030520100F250625421618280B6
:1015F000797122D60018AA87A30FF4FC239A01C898
:10160000938741C923910700938741C9239207001B
:10161000938741C923830700938741C97947F8B36A
:10162000938741C923940700938741C923950700F5
:10163000938741C923960700A30704FE31A8834777
:10164000F4FE138741C98607BA972397070083479B
:10165000F4FE8507A307F4FE0347F4FE8547E3F095
:10166000E7FE938741C923890700938741C9239ADD
:101670000700938741C9239B0700938741C9238CA7
:101680000700938741C9239D0700938741C9238E93
:101690000700938741C9A38E070023A6018223A8D0
:1016A00001828347F4FDA9C7938741C9238F0700AF
:1016B000938741C9130720FCF8BF938741C90547A9
:1016C0002380E702938741C9A3800702938741C91A
:1016D00023810702938741C9A3810702938741C9E8
:1016E00021472382E702938741C97947A382E70212
:1016F00001003254456182805D7186C6A2C48008B3
:10170000AA87232CB4FA232AC4FAA30FF4FA2322BB
:1017100004FC232404FC232604FC232804FC232AA1
:1017200004FC232C04FC232E04FC232004FE23228F
:1017300004FE232404FE232604FE8347F4FBB5EBBA
:10174000B707024013850708EF00501BB74700405A
:10175000938747402322F4FC832784FB2324F4FC53
:10176000C1472326F4FC832744FB2328F4FC232AC7
:1017700004FC93070008232CF4FC232E04FC2320F4
:1017800004FE232204FE85672324F4FE232604FEA0
:10179000930744FCBE85B707024013850708EF0096
:1017A00010478545B707024013850708EF00B05082
:1017B00095A8B70702401385C706EF003014B74756
:1017C0000040938747402322F4FC832784FB232493
:1017D000F4FC232604FC832744FB2328F4FC232A5F
:1017E00004FC93070008232CF4FC232E04FC232084
:1017F00004FE930700022322F4FE85672324F4FEEF
:10180000232604FE930744FCBE85B70702401385D8
:10181000C706EF00D03F8545B70702401385C706CE
:10182000EF0070490100B6402644616182800111D9
:1018300006CE22CC0010AA872324B4FE3687A30745
:10184000F4FEB2872307F4FEBA87A306F4FE01462E
:1018500093050004B747004013850740EF10103090
:101860008145B70702401385C706EF00D044814584
:10187000B707024013850708EF00F0430347D4FE83
:101880008347E4FE3A86BE85032584FED1360146B1
:10189000938501CC01458D35856713860780B71781
:1018A00000209385879C0545813D054693050004EE
:1018B000B747004013850740EF10502A8347F4FED6
:1018C0003E853D330100F240624405618280011192
:1018D00006CE22CC0010938741C983C7170293F725
:1018E000F70FE2073E87938741C983C7070293F743
:1018F000F70FC207BA972326F4FE938741C9FC3F2E
:1019000093F7F70FA2073E87938741C9FC2F93F700
:10191000F70FBA970327C4FEBA972326F4FE9387DE
:1019200041C983C72702A305F4FE938741C983C732
:1019300037022305F4FE0347A4FE8347B4FEBA86AC
:101940003E868325C4FE0145DD35B73702409387C7
:101950000740138701CCD8D3B7370240938707409D
:1019600083C7370E13F7F70FB73702409387074047
:10197000719B1377F70FA381E70EB73702401387E8
:101980000740B7370240938707400347370E137766
:10199000F70FA381E70E0100F240624405618280E7
:1019A000011122CE00102326A4FE8327C4FEFD8B46
:1019B0000547B316F70037E700E08327C4FE958399
:1019C000938707048A07BA9794C30100724405619C
:1019D0008280011122CE00102326A4FE8327C4FE9C
:1019E000FD8B0547B316F70037E700E08327C4FEF9
:1019F0009583938707068A07BA9794C301007244B8
:101A000005618280011106CE22CC00102326A4FE9F
:101A1000AE87A305F4FE8325C4FEB7170020138507
:101A2000871CEF10D062130550056537B7370240A9
:101A300093870740371700201307871CB8D3B737A1
:101A40000240938707400347B4FE42074183239037
:101A5000E70EB73702409387074083C7270E13F777
:101A6000F70FB737024093870740719B1377F70F43
:101A70002381E70EB737024013870740B73702408C
:101A8000938707400347270E1377F70F2381E70E4D
:101A90001305500531370100F24062440561828030
:101AA000411122C600080100324441017300203078
:101AB000411122C6000883C7518381CBB71701406B
:101AC00093870780216798CB39A0B7170140938788
:101AD00007802167D8CB83C7518393C7170013F7BB
:101AE000F70FA38AE182938741C9FC2393F7F70F8D
:101AF000850713F7F70F938741C9F8A3138741C9E7
:101B0000382F1377F70F938741C9BC3F93F7F70F2F
:101B1000A207D98FC207C1838507139707014183A5
:101B2000938741C99375F70FB42F818A3686AE86A5
:101B3000D18EB4AF2183131607014182B83F018BC8
:101B4000BA863287558FB8BFB707004079579AAB2E
:101B500001003244410173002030411122C60008C7
:101B6000956713858795EF10F04D01A0011106CE02
:101B700022CC00103D22EF10B00EF1671385072034
:101B8000EF10B01AB707002083A78710BE859567AE
:101B900013854796EF10D039B123AA87BE85956784
:101BA00013854797EF10D038956713854798EF1046
:101BB0007049EFF0CFFDEFF0FF8081460146F167FD
:101BC000938507200545A531EFE04FF40545EFE08B
:101BD0003F8A231704FE8357E4FE85072317F4FE8C
:101BE00083C74183EDDB238A0182B7270020138559
:101BF000879CEF10D046AA8793F7F70FBE85B727CB
:101C000000201385879CFD3BF9B7411106C622C40D
:101C10000008B71702409843B71702401367170030
:101C200098C3B7170240D443B71702403707FFF8ED
:101C3000758FD8C3B71702409443B71702403707D0
:101C4000F7FE7D17758F98C3B71702409443B717F7
:101C500002403707FCFF7D17758F98C3B717024006
:101C6000D443B7170240370781FF7D17758FD8C35C
:101C7000B71702409443B7170240370700EC7D17AF
:101C8000758F98C3B71702403707FF0098C7B7177B
:101C9000024023A60702E92A0100B2402244410182
:101CA0008280011122CE0010232204FE232604FE8E
:101CB000232004FE232404FEB7170240DC43B18B2B
:101CC0002322F4FE032744FE91476304F70203270F
:101CD00044FEA1476308F702832744FE639007147C
:101CE000B707002037177A001307072023A4E7104F
:101CF00081A2B707002037177A001307072023A413
:101D0000E7103DA2B7170240D843B7073C00F98F50
:101D10002326F4FEB7170240D843C167F98F23206A
:101D2000F4FE8327C4FEC98389072326F4FE032714
:101D3000C4FE89476315F700C9472326F4FE03272D
:101D4000C4FEBD476318F700B5472326F4FE854758
:101D50002324F4FE0327C4FEC1476315F700BD47E3
:101D60002326F4FE0327C4FEC5476315F700C147C9
:101D70002326F4FE832704FEB1E3B747024093878E
:101D800007809C43C18B91CF0327C4FEB7177A000D
:101D9000938707203307F702B707002023A4E71033
:101DA000B1A80327C4FEB7173D00938707903307F8
:101DB000F702B707002023A4E71089A0B717024055
:101DC000D843B7070200F98F91CF0327C4FEB71796
:101DD0003D00938707903307F702B707002023A43D
:101DE000E71029A80327C4FEB7177A0093870720B6
:101DF0003307F702B707002023A4E710032784FE68
:101E000085476316F702B707002083A7871013D70B
:101E10001700B707002023A4E71011A8B707002078
:101E200037177A001307072023A4E71011A0010039
:101E3000B7170240DC43918313F7F700B707002080
:101E400093878708BA979C2393F7F70F2322F4FE12
:101E5000B707002003A78710832744FE3357F700F6
:101E6000B707002023A4E7100100724405618280B7
:101E7000411106C622C4000831200100B2402244AC
:101E800041018280011122CE0010232604FE23246A
:101E900004FEB71702409443B71702404167558FBD
:101EA00098C3B71702409843B7070200F98F23245D
:101EB000F4FE8327C4FE85072326F4FE832784FED1
:101EC00091E70327C4FE8567E31DF7FCB7170240BF
:101ED0009843B7070200F98F89C785472324F4FE8A
:101EE00019A0232404FE032784FE85476312F70A02
:101EF00037170240B71702405843D8C3371702407C
:101F0000B71702405843D8C3B7170240D843B71792
:101F1000024013670740D8C3B7170240D443B7172E
:101F200002403707C1FF7D17758FD8C3B71702402E
:101F3000D443B717024037072900558FD8C3B717C6
:101F400002409443B717024037070001558F98C3EA
:101F50000100B71702409843B7070002F98FF5DB7D
:101F6000B7170240D843B7170240719BD8C3B717C1
:101F70000240D843B717024013672700D8C30100B7
:101F8000B7170240DC4313F7C700A147E31AF7FE77
:101F9000010072440561828001A001A001A001A09E
:101FA00001A001A001A001A001A001A001A001A029
:101FB00001A001A001A001A001A001A001A001A019
:101FC00001A001A001A001A001A001A001A001A009
:101FD00001A001A001A001A001A001A001A001A0F9
:101FE00001A001A001A001A001A001A001A001A0E9
:101FF00001A001A001A001A001A001A001A001A0D9
:1020000001A001A001A001A001A001A001A001A0C8
:1020100001A001A001A001A001A001A001A001A0B8
:1020200001A001A001A001A001A001A001A001A0A8
:1020300001A001A001A001A001A001A001A001A098
:1020400001A001A001A001A001A001A001A001A088
:1020500001A001A001A097F1FF1F9381218B1761BF
:102060000020130121FA173500001305A5B497E5E8
:10207000FF1F938525F91386818163FAC5008322AA
:10208000050023A0550011059105E3EAC5FE13855F
:102090008181970500209385A5136377B5002320E0
:1020A00005001105E36DB5FEFD42739002BCAD4223
:1020B00073904280B76200009382820873A002305E
:1020C00097E2FFFF938282F793E2320073905230DF
:1020D000EFF0BFB397020000938282A9739012348D
:1020E00073002030411122C60008B7F7FF1F938705
:1020F00047709C433E85324441018280011122CECB
:1021000000102326A4FE8327C4FE9843C167F91755
:102110007D8F8327C4FE98C38327C4FE23A00700B6
:102120008327C4FE23A207008327C4FE23A407003D
:102130008327C4FE23A607000327C4FEB707024077
:10214000A107631BF700B7070240D843B707024057
:102150001367F700D8C345AC0327C4FEB707024096
:10216000F107631BF700B7070240D843B7070240E7
:102170001367070FD8C341AC0327C4FEB70702405B
:1021800093870703631DF700B7070240D443B707DF
:1021900002400567130707F0558FD8C3ADA4032786
:1021A000C4FEB707024093874704631BF700B707D5
:1021B0000240D443B70702403D67558FD8C3A1A45E
:1021C0000327C4FEB707024093878705631CF70007
:1021D000B7070240D443B707024037070F00558FB7
:1021E000D8C315A40327C4FEB70702409387C706C8
:1021F000631CF700B7070240D443B7070240370714
:10220000F000558FD8C301A40327C4FEB7070240CE
:1022100093870708631CF700B7070240D443B7074A
:1022200002403707000F558FD8C3F1AA0327C4FE19
:10223000B707024093878740631FF700B707024044
:1022400093870740D843B707024093870740136737
:10225000F700D8C34DAA0327C4FEB70702409387EF
:10226000C741631FF700B707024093870740D84371
:10227000B7070240938707401367070FD8C361A2CF
:102280000327C4FEB7070240938707436311F70291
:10229000B707024093870740D443B70702409387AC
:1022A00007400567130707F0558FD8C3A9AA03276E
:1022B000C4FEB707024093874744631FF700B70780
:1022C000024093870740D443B707024093870740F3
:1022D0003D67558FD8C305AA0327C4FEB707024040
:1022E000938787456310F702B7070240938707403B
:1022F000D443B70702409387074037070F00558F35
:10230000D8C311A20327C4FEB70702409387C7466C
:102310006310F702B707024093870740D443B7071B
:102320000240938707403707F000558FD8C3E1A8D4
:102330000327C4FEB7070240938707486310F702DC
:10234000B707024093870740D443B70702409387FB
:1023500007403707000F558FD8C375A00327C4FE69
:10236000B707024093870749631FF700B70702408A
:102370009387074DD843B70702409387074D1367EC
:10238000F700D8C349A00327C4FEB70702409387CC
:10239000074A631FF700B70702409387074DD843EA
:1023A000B70702409387074D1367070FD8C3A1A84B
:1023B0000327C4FEB70702409387074B6311F70258
:1023C000B70702409387074DD443B707024093876E
:1023D000074D0567130707F0558FD8C32DA00327B6
:1023E000C4FEB70702409387074C631EF700B70788
:1023F00002409387074DD443B70702409387074DA8
:102400003D67558FD8C301007244056182807971A0
:1024100022D60018232EA4FC232CB4FC232604FE71
:102420008327C4FD9C432326F4FE0327C4FEE177E3
:10243000BD07F98F2326F4FE832784FD9847832761
:1024400084FD9C535D8F832784FD9C4B5D8F832788
:1024500084FDDC4B5D8F832784FD9C4F5D8F83273C
:1024600084FDDC4F5D8F832784FDDC535D8F8327E4
:1024700084FD9C57D98F0327C4FED98F2326F4FEF1
:102480008327C4FD0327C4FE98C3832784FDD84750
:102490008327C4FDD8C3832784FD98438327C4FDC5
:1024A00098C7832784FDD8438327C4FDD8C701007C
:1024B000325445618280011122CE00102326A4FEF1
:1024C0002324B4FE832784FE91CB8327C4FE9C4340
:1024D00013E717008327C4FE98C311A88327C4FEFF
:1024E0009843C167F9177D8F8327C4FE98C3010005
:1024F000724405618280397122DE80002326A4FCAB
:102500002324B4FC232604FE232004FE232404FEFB
:10251000232E04FC232204FE232C04FC832784FCAA
:102520009C47BD8B2326F4FE832784FC9C47C18BEC
:1025300089CB832784FCDC430327C4FED98F232661
:10254000F4FE832784FC9E2393F7F70FE9CF8327BC
:10255000C4FC9C432322F4FE232404FE5DA88327AD
:1025600084FE0547B317F700232EF4FC832784FC71
:102570009E233E878327C4FDF98F2320F4FE032783
:1025800004FE8327C4FD6311F708832784FE8A07AE
:10259000232EF4FC8327C4FD3D47B317F700232CFB
:1025A000F4FC832784FD93C7F7FF032744FEF98FCC
:1025B0002322F4FE8327C4FD0327C4FEB317F700CC
:1025C000032744FED98F2322F4FE832784FC9847F7
:1025D00093078002631BF700832784FE05473317A8
:1025E000F7008327C4FCD8CB05A0832784FC984739
:1025F00093078004631AF700832784FE0547331787
:10260000F7008327C4FC98CB832784FE8507232407
:10261000F4FE032784FE9D47E3F3E7F48327C4FC1D
:10262000032744FE98C3832784FC9A239307F00F63
:1026300063F0E70E8327C4FCDC432322F4FE23244B
:1026400004FE6DA8832784FEA1070547B317F70092
:10265000232EF4FC832784FC9E233E878327C4FD1E
:10266000F98F2320F4FE032704FE8327C4FD6312A1
:10267000F708832784FE8A07232EF4FC8327C4FDF2
:102680003D47B317F700232CF4FC832784FD93C741
:10269000F7FF032744FEF98F2322F4FE8327C4FDAE
:1026A0000327C4FEB317F700032744FED98F232264
:1026B000F4FE832784FC984793078002631BF7008E
:1026C000832784FEA10705473317F7008327C4FC3F
:1026D000D8CB832784FC984793078004631BF700BB
:1026E000832784FEA10705473317F7008327C4FC1F
:1026F00098CB832784FE85072324F4FE032784FEDA
:102700009D47E3F1E7F48327C4FC032744FED8C3C5
:102710000100725421618280011122CE0010232613
:10272000A4FEAE872315F4FE0357A4FE8327C4FE40
:1027300098CB0100724405618280397122DE8000ED
:102740002326A4FC232204FE232604FE232004FEC9
:10275000232E04FCA30504FEA30D04FCB7170240BE
:10276000DC43B18B2322F4FE032744FE914763032D
:10277000F702032744FEA1476306F702832744FEBE
:10278000639D07208327C4FC37177A0013070720AF
:1027900098C329AC8327C4FC37177A001307072096
:1027A00098C329A4B7170240D843B7073C00F98F54
:1027B0002326F4FEB7170240D843C167F98F2320C0
:1027C000F4FE8327C4FEC98389072326F4FEB7F7E6
:1027D000FF1F9387C77098439167F98F91EB032789
:1027E000C4FEC5476319F704C9472326F4FEA1A018
:1027F0000327C4FE89476315F700C9472326F4FE63
:102800000327C4FEBD476318F700B5472326F4FE2F
:102810008547A305F4FE0327C4FEC1476315F700EF
:10282000BD472326F4FE0327C4FEC5476315F70002
:10283000C1472326F4FE832704FEA1E3B7470240E5
:10284000938707809C43C18B89CF0327C4FEB717AA
:102850007A00938707203307F7028327C4FC98C3C5
:1028600039AA0327C4FEB7173D00938707903307A3
:10287000F7028327C4FC98C319A2B7170240D857A0
:10288000C167F98FE9C7B7170240DC579183BD8B49
:10289000850737177A00130707203357F702832776
:1028A000C4FC98C3B7170240DC57A18393F7F70F16
:1028B000BD8BA30DF4FC8347B4FD89EF8327C4FCD3
:1028C0009843BA878A07BA9713D717008327C4FC9F
:1028D00098C385A00347B4FD85476310F70283279B
:1028E000C4FC9843BA878607BA978E07BA9713D75E
:1028F00017008327C4FC98C32DA80347B4FDBD4728
:10290000631EF7008327C4FC9843BA878A07BA97E7
:102910008A073E878327C4FC98C321A88327C4FC69
:102920009C430347B4FD09073387E7028327C4FCB0
:1029300098C38327C4FC9843B7170240DC57BD8B6C
:1029400085073357F7028327C4FC98C339A8B71704
:102950000240DC57BD8B850737177A001307072025
:102960003357F7028327C4FC98C38327C4FC9843DA
:102970008327C4FE3307F7028327C4FC98C30347A9
:10298000B4FE85476313F7028327C4FC9C4313D727
:1029900017008327C4FC98C309A88327C4FC3717F2
:1029A0007A001307072098C311A00100B71702404F
:1029B000DC4393F7070F2322F4FE832744FE918321
:1029C0002322F4FEB707002013878709832744FEDC
:1029D000BA979C2393F7F70F232EF4FC8327C4FCAC
:1029E00098438327C4FD3357F7008327C4FCD8C31B
:1029F000B7170240DC4393F707702322F4FE8327C6
:102A000044FEA1832322F4FEB70700201387870921
:102A1000832744FEBA979C2393F7F70F232EF4FCE9
:102A20008327C4FCD8438327C4FD3357F70083278B
:102A3000C4FC98C7B7170240D843916793870780B3
:102A4000F98F2322F4FE832744FEAD832322F4FE74
:102A5000B707002013878709832744FEBA979C2372
:102A600093F7F70F232EF4FC8327C4FCD843832766
:102A7000C4FD3357F7008327C4FCD8C7B7170240FB
:102A8000D843B167F98F2322F4FE832744FEB9832C
:102A90002322F4FEB70700201387C710832744FEC4
:102AA000BA979C2393F7F70F232EF4FC8327C4FCDB
:102AB000D8478327C4FD3357F7028327C4FC98CB3C
:102AC0000100725421618280011122CE0010232660
:102AD000A4FE2324B4FE832784FE99CBB7170240BB
:102AE000D44BB71702400327C4FE558FD8CB21A87B
:102AF000B7170240D44B8327C4FE13C7F7FFB7179D
:102B00000240758FD8CB01007244056182800111AB
:102B100022CE00102326A4FE2324B4FE832784FEA5
:102B200099CBB7170240944FB71702400327C4FE52
:102B3000558F98CF21A8B7170240944F8327C4FE22
:102B400013C7F7FFB7170240758F98CF0100724483
:102B500005618280011122CE00102326A4FE2324C9
:102B6000B4FE832784FE99CBB7170240D44FB71722
:102B700002400327C4FE558FD8CF21A8B7170240C3
:102B8000D44F8327C4FE13C7F7FFB7170240758FD2
:102B9000D8CF0100724405618280011122CE00105D
:102BA0002326A4FE2324B4FE832784FE99CBB717E3
:102BB0000240D447B71702400327C4FE558FD8C739
:102BC00021A8B7170240D4478327C4FE13C7F7FFD5
:102BD000B7170240758FD8C7010072440561828023
:102BE000011122CE00102326A4FE2324B4FE832745
:102BF00084FE99CBB7170240944BB71702400327C6
:102C0000C4FE558F98CB21A8B7170240944B832759
:102C1000C4FE13C7F7FFB7170240758F98CB0100AA
:102C2000724405618280011122CE00102326A4FE89
:102C3000B7170240D457B7170240370700F97D177E
:102C4000758FD8D7B7170240D4578327C4FE139780
:102C50008701B7170240558FD8D70100724405612C
:102C60008280011122CE00102326A4FEB717024055
:102C7000D457B7170240370700F87D17758FD8D79C
:102C8000B7170240D4578327C4FE1397B701B7176D
:102C90000240558FD8D7010072440561828001112E
:102CA00022CE00102326A4FEB7170240D457B71730
:102CB0000240370700D07D17758FD8D7B71702406D
:102CC000D4578327C4FE1397C701B7170240558F07
:102CD000D8D70100724405618280011122CE001014
:102CE0002326A4FE8327C4FE99CBB7170240D457EE
:102CF000B717024037070040558FD8D719A8B71724
:102D00000240D457B7170240370700C07D17758FB0
:102D1000D8D70100724405618280011122CE0010D3
:102D20002326A4FEB7170240D457B717024037072F
:102D300000801347F7FF758FD8D7B7170240D457D5
:102D40008327C4FE1397F701B7170240558FD8D7D2
:102D50000100724405618280011106CE22CC001070
:102D60002326A4FE0327C4FEB7370140938707C07C
:102D7000631DF7008545856713850780393D8145CB
:102D8000856713850780113D39A20327C4FEB73735
:102D90000140938707406319F70085450965F53BB6
:102DA00081450965DD3BC5A80327C4FEB75701402F
:102DB000938707C0631BF700854537050800F13B83
:102DC000814537050800D13BF9A00327C4FEB7575A
:102DD0000140631BF7008545370510007D3B8145A9
:102DE000370510005D3B45A80327C4FEB707004028
:102DF0006319F70085450545E53381450545CD3324
:102E000059A80327C4FEB7070040938707406319FA
:102E1000F70085450945E93381450945D133A5A822
:102E20000327C4FEB7170040938707806319F70094
:102E3000854511457533814511455D33A9A80327A3
:102E4000C4FEB7170040938707C06319F700854594
:102E50002145793381452145613335A80327C4FED7
:102E6000B71700406319F70085454145953B8145FB
:102E70004145BD330DA00327C4FEB717004093871B
:102E80000740631AF700854513050002913B814511
:102E900013050002B1330100F240624405618280F3
:102EA000797122D60018232EA4FC232CB4FC2317FE
:102EB00004FE8327C4FD9E232317F4FE0327C4FDCD
:102EC000B7370140938707C06306F7060327C4FDA1
:102ED000B70700406300F7060327C4FDB7070040AB
:102EE000938707406308F7040327C4FDB717004022
:102EF000938707806300F7040327C4FDB7170040DA
:102F0000938707C06308F7020327C4FDB737014062
:102F1000938707406300F7020327C4FDB7570140BA
:102F2000938707C06308F7000327C4FDB757014024
:102F30006310F7028357E4FE93F7F7F82317F4FEC4
:102F4000832784FDBA238357E4FED98F2317F4FE29
:102F50000327C4FDB71700406308F7020327C4FD29
:102F6000B7170040938707406300F7028357E4FEDA
:102F700093F7F7CF2317F4FE832784FDFA238357B3
:102F8000E4FED98F2317F4FE8327C4FD0357E4FE24
:102F90009AA3832784FDDA238327C4FDDAB7832726
:102FA00084FD9A238327C4FD9AB70327C4FDB7374E
:102FB0000140938707C06308F7020327C4FDB737B2
:102FC0000140938707406300F7020327C4FDB7570A
:102FD0000140938707C06308F7000327C4FDB75774
:102FE0000140631BF700832784FD9C27139707018B
:102FF00041838327C4FD9ABB8327C4FD0547DAAB11
:103000000100325445618280011122CE0010232636
:10301000A4FE2324B4FE832784FE99CF8327C4FE15
:103020009E23C207C18393E71700139707014183CB
:103030008327C4FE9AA329A88327C4FE9E23C20720
:10304000C183F99B1397070141838327C4FE9AA389
:103050000100724405618280011122CE00102326F6
:10306000A4FEAE872322C4FE2315F4FE832744FE6C
:103070008DC38327C4FEDE2713970701418383573F
:10308000A4FED98F1397070141838327C4FEDAA7D3
:1030900025A08327C4FEDE271397070141838357AA
:1030A000A4FE93C7F7FFC207C183F98F13970701E7
:1030B00041838327C4FEDAA7010072440561828040
:1030C000011122CE00102326A4FEAE872315F4FEA4
:1030D0008357A4FE93C7F7FF139707014183832704
:1030E000C4FE9AAB01007244056182805D7186C6A0
:1030F000A2C48008232EA4FA232CB4FA232604FEAB
:10310000232404FE232204FE232004FE232E04FC99
:103110008327C4FB232EF4FC8327C4FB9E2BC2070A
:10312000C1832326F4FE0327C4FEB567FD17F98F7C
:103130002326F4FE832784FBFE233E878327C4FED9
:10314000D98F2326F4FE8327C4FE139707014183FA
:103150008327C4FB9AAB8327C4FBDE27C207C18346
:103160002326F4FE0327C4FEBD679387379FF98F9C
:103170002326F4FE832784FBDA23832784FB9E2700
:10318000D98F139707014183832784FBBE27D98FEB
:10319000C207C1833E878327C4FED98F2326F4FE4E
:1031A0008327C4FE1397070141838327C4FBDAA753
:1031B0008327C4FBDE2BC207C1832326F4FE03272B
:1031C000C4FEC1679387F7CFF98F2326F4FE8327C8
:1031D00084FBDE273E878327C4FED98F2326F4FE97
:1031E0008327C4FE1397070141838327C4FBDAAB0F
:1031F000930784FC3E85EFF04FD40327C4FDB74707
:103200000140938707806317F700832744FD232439
:10321000F4FE29A0832704FD2324F4FE8327C4FBA6
:10322000DE27C207C183C207C18763D20702032713
:1032300084FEBA878607BA978E073E97832784FB5A
:103240009C438607B357F7022322F4FE05A0032709
:1032500084FEBA878607BA978E073E97832784FB3A
:103260009C438A07B357F7022322F4FE032744FE48
:1032700093074006B357F70292072326F4FE8327ED
:10328000C4FE13D7470093074006B307F70203278E
:1032900044FEB307F7402320F4FE8327C4FBDE2758
:1032A000C207C183C207C18763D20702832704FE16
:1032B0008E071387270393074006B357F7029D8BAA
:1032C0000327C4FED98F2326F4FE05A0832704FE1E
:1032D00092071387270393074006B357F702BD8B66
:1032E0000327C4FED98F2326F4FE8327C4FE139739
:1032F000070141838327C4FB9AA70100B6402644F7
:1033000061618280011122CE00102326A4FE2324B5
:10331000B4FE832784FE85C38327C4FEDE2713976C
:10332000070141838967D98F139707014183832759
:10333000C4FEDAA705A08327C4FEDE271397070182
:103340004183F977FD17F98F13970701418383278D
:10335000C4FEDAA70100724405618280011122CE09
:1033600000102326A4FEAE872322C4FE2315F4FEFC
:10337000832744FE8DC38327C4FEDE2B13970701EA
:1033800041838357A4FED98F139707014183832775
:10339000C4FEDAAB25A08327C4FEDE2B13970701FA
:1033A00041838357A4FE93C7F7FFC207C183F98FF8
:1033B0001397070141838327C4FEDAAB01007244EF
:1033C00005618280011122CE00102326A4FEAE8763
:1033D0002315F4FE8357A4FE93F7F71F13970701F5
:1033E00041838327C4FEDAA3010072440561828011
:1033F000797122D60018232EA4FCAE87231DF4FC7D
:10340000232604FE8327C4FD9E23139707014183CF
:103410008357A4FDF98FC207C18389C78547232637
:10342000F4FE19A0232604FE8327C4FE3E853254F1
:1034300045618280011122CE00102326A4FEAE87B2
:103440002315F4FE8357A4FE93C7F7FF13970701D4
:1034500041838327C4FE9AA30100724405618280E0
:10346000411122C60008B707002003A78710B7172D
:103470007A0093870720B357F70213F7F70F238BD0
:10348000E18283C761831397070141839307803EDD
:10349000B307F702139707014183239CE1820100E0
:1034A000324441018280797122D60018232EA4FC77
:1034B00037F700E0544337F700E0F99A54C303C7E5
:1034C0006183BA860327C4FD3307D7022326E4FEAF
:1034D00037F700E08326C4FEB68701481CCB232AB9
:1034E0000701B7F700E09843B7F700E0136707015B
:1034F00098C3B7F700E09843B7F700E013671702E7
:1035000098C30100B7F700E0DC4313F717008547C5
:10351000E31AF7FEB7F700E09843B7F700E0799BAE
:1035200098C30100325445618280397106DE22DC85
:1035300080002326A4FC8545916713854700EFF0A2
:103540000FDD930700202312F4FE8D472324F4FEA1
:10355000E1472326F4FE930744FEBE85B7170140DA
:1035600013850780EFE03FF98327C4FC232AF4FC8E
:10357000231C04FC231D04FC231E04FC231004FE56
:10358000A147231FF4FC930744FDBE85B7470140C4
:1035900013850780EFF09FB58545B7470140138538
:1035A00007808D330100F25062542161828079716D
:1035B00006D622D40018232EA4FC232CB4FC232AE4
:1035C000C4FC232604FE81A0010093050004B74734
:1035D000014013850780293DAA87E5DB832784FD09
:1035E00013871700232CE4FC83870700C207C183DD
:1035F000BE85B747014013850780E9338327C4FEA2
:1036000085072326F4FE0327C4FE832744FDE34DEC
:10361000F7FA832744FD3E85B250225445618280EB
:10362000011122CE00102326A4FE03A78180832748
:10363000C4FE3E97B72700209387C71C636DF70031
:1036400003A781808327C4FE3E97B7870020938716
:10365000078063F4E700FD5739A803A7818083271B
:10366000C4FE3E9723A4E18003A781808327C4FE84
:10367000B307F040BA973E85724405618280B3C7B4
:10368000A5008D8B3307C50081E78D4763EDC7002B
:10369000AA87637EE508942185078505A38FD7FE59
:1036A000E3EBE7FE828093763500AA8789CA9421EE
:1036B00085078505A38FD7FE93F63700C5BF9376A0
:1036C000C7FF138606FE63F0C70683A3050083A227
:1036D000450083AF850003AFC50083AE050103AE8F
:1036E000450103A3850183A8C5019385450223A055
:1036F000770003A8C5FF23A2570023A4F70123A640
:10370000E70123A8D70123AAC70123AC670023AE92
:1037100017019387470223AE07FF75B790419107C2
:10372000910523AEC7FEE3EBD7FEE3E6E7F6828022
:1037300039713EDA2ED232D436D63AD842DC46DE61
:103740009387C18022CC804326CA06CEAA8409C4AE
:103750001C4C99E32285312B0C445410268622857B
:1037600036C6EF009014F2406244D2442161828058
:10377000011126CA4AC806CE22CC4EC652C4AA841B
:103780002E8901C51C4D91E3ED219C4C804499E3A9
:103790002685C521971700009387073A631BF4021B
:1037A000C0405E24A18BB1C71C48A1C7FD59294A5E
:1037B0001C4483450900FD17B1E91CC463DD0706FD
:1037C0002286A94526856D20FD576308F502294507
:1037D00035A097170000938727386314F4008044BE
:1037E000C9B79717000093872733E31CF4FAC04446
:1037F0004DBFA28526851D2A55D97D55F2406244CC
:10380000D2444249B249224A056182801CC405095A
:1038100063D70700184C63CAE700638845011C4062
:103820001387170018C08CA361B7228626858920CC
:10383000E31035F9D9B71C401387170018C0294782
:1038400098A371B79387C180AA85884315B7AA87C3
:10385000982185078505A38FE7FE7DFB8280AA87D7
:10386000850703C7F7FF6DFF3385A7407D1582806D
:10387000011122CC26CA4AC806CE4EC6AA842E8979
:10388000328401C51C4D91E3ED2697170000938704
:10389000A72A6317F406C0401C4C1CC45E24A18BED
:1038A000C1C31C48B5CF1C4808409379F90F137960
:1038B000F90F1D8D5C486346F500A2852685692CAD
:1038C00025E51C440505FD171CC41C401387170083
:1038D00018C0238037015C486388A7005E24858B6D
:1038E00081CBA9476316F900A2852685B5240DED85
:1038F000F24062444A85D2444249B249056182801D
:1039000097170000938747256314F400804469B734
:103910009717000093874720E310F4F8C044ADBF29
:10392000A2852685212041D17D59D9B741119387A0
:10393000C18026C2844322C44AC006C62A892E8476
:1039400089C49C4C99E326852D2697170000938700
:10395000A71E631BF402C0400317C400931707019E
:10396000C18393F68700ADEA93F6070195EEA5476C
:103970002320F900136707045AA47D55B24022445E
:103980009244024941018280971700009387C71C27
:103990006314F4008044C9B7971700009387C717D2
:1039A000E31CF4FAC0444DBF918B9DC34C5889C9A8
:1039B000930744046384F5004A853123232A0402D3
:1039C0005E242322040093F7B7FD5EA41C481CC0AC
:1039D0005E2493E787005EA41C4899EB5E241307DE
:1039E000002093F707286385E700A2854A85A12177
:1039F0005E2413F717001DC35C4823240400B3079B
:103A0000F0401CCC1C480145B5FB8317C40013F7DC
:103A100007082DD793E707045EA485B7898B014774
:103A200091E3584818C4F9BFDE25011122CC26CAFB
:103A300006CE4AC84EC613F78700AA842E8479EBB7
:103A4000D841634DE000B841634AE0000145F240CF
:103A50006244D2444249B2490561828058547DD7BC
:103A600003A904009396370123A0040063DB060634
:103A700070485E24918B99C75C401D8E5C5899C339
:103A80003C401D8E5C540C50814626858297FD5724
:103A90005A24631DF5009440F54763E8D706B7073D
:103AA00040208507B3D7D700858BA5C31C482322A8
:103AB00004001CC09317370163D80700FD57631437
:103AC000F5009C4091E368C84C5823A02401BDDD5B
:103AD000930744046384F5002685F526232A04020F
:103AE000B5B70C500146854626850297FD572A86B4
:103AF000E311F5F89C40B5DF75476385E70059474A
:103B00006393E70423A0240191B7136707045AA421
:103B10007D5535BF83A90501E38A09F203A9050094
:103B20008D8B23A0350133093941014791E3D849F1
:103B300018C4E35D20F11C540C50CA864E862685BD
:103B400082976347A0005E2493E707045EA4C9B789
:103B5000AA993309A940F1BF9C49B9CF011122CCE0
:103B600006CE2A8411C51C4D81E72EC61922B24506
:103B700097170000938747FC639BF5004C408397A1
:103B8000C50095C722856244F240056171BD971753
:103B90000000938767FC6394F5000C44CDB797173A
:103BA0000000938767F7E39CF5FC4C44C9BFF240E3
:103BB000624401450561828001458280411122C431
:103BC00006C62A844EA572A52320050023220500DF
:103BD000232405002322050623280500232A0500A7
:103BE000232C0500214681451305C505EFC04FE193
:103BF00097170000938707B25CD097170000938750
:103C000027B41CD497170000938707B85CD4971784
:103C10000000938767BA00D01CD8B240224441010B
:103C2000828097050000938565F3A9A2411126C201
:103C3000130680069384F5FFB384C4024AC02E891C
:103C400022C406C6938544071D262A8401CD23205D
:103C5000050023222501310508C413868406814509
:103C6000EFC00FDA2285B24022449244024941015A
:103C700082801C4DADE3411106C622C497070000A7
:103C8000938767FA1CD5938741819C4323240504BD
:103C900023260504232805046314F50085471CCD5D
:103CA0002A841D2848C02285052808C422852D2085
:103CB00048C4484001469145113708440546A5458A
:103CC000F53D48440946C945D53D85471CCCB24021
:103CD000224441018280828041119387418126C222
:103CE00084434AC006C69C4C22C42A8999E326858F
:103CF0004937938484048044DC40FD1763D6070071
:103D00009C40B9CF8440C5BF0317C40039E7C177D1
:103D100085072322040623200400232204002324F1
:103D200004005CC423280400232A0400232C04007C
:103D3000214681451305C405EFC08FCC232A040218
:103D4000232C040223240404232604042285B240E5
:103D5000224492440249410182801304840671BFC7
:103D600091454A85E13588C051FDB1472320F900CE
:103D70000144E9BF797122D44AD052CC56CA5AC8FC
:103D80005EC606D626D24ECE2A8AAE8A1304850493
:103D90000149054BFD5B09ECB25022544A8592540F
:103DA0000259F249624AD24A424BB24B4561828083
:103DB000044483294400FD1963D409000040E1BF95
:103DC000DE24637BFB008397E40063877701A6858D
:103DD0005285829A3369A90093848406E9BF1971D8
:103DE000A6DAAE848395E500A2DC86DE328463DB4E
:103DF0000500DE2423A0060093F7070885E7930754
:103E000000401DA0300836C6EF009021B246E342C4
:103E100005FE7247BD67F98F7977BA9793B7170098
:103E20009CC2F1BF930700041CC0F6506654D654E0
:103E3000014509618280DE25011122CC06CE26CA09
:103E40004AC8898B2E8489CF930774041CC01CC870
:103E500085475CC8F2406244D24442490561828091
:103E600074003000AA84A53FA2452A892685012234
:103E700019E98317C40013F7072069FFF19B93E743
:103E800027005EA4D1B7970700009387C7D99CD4B9
:103E90005E2408C008C893E707085EA4A2475CC870
:103EA000B24781CF8315E4002685EF00901A11C533
:103EB0005E24F19B93E717005EA45E243369F9004A
:103EC0002316240141BFDDC183A7C5FF411122C4D0
:103ED00006C626C21384C5FF63D307003E94AA8496
:103EE000EF00F01E9387C1839C4381EF23220400DF
:103EF00023AE81822244B2402685924441016F0064
:103F0000301D637EF40014403307D4006396E7004D
:103F10009843DC43369718C05CC0D9BFBA87D843F2
:103F200019C3E37DE4FE94433386D700631F860004
:103F30001040B29694C33386D700E31DC7FA1043EE
:103F40005843B29694C3D8C375B76375C400B147DC
:103F50009CC04DB71040B306C4006316D70014438D
:103F60005843B29614C058C0C0C369B782800111CB
:103F700026CA93843500F19806CE22CC4AC84EC694
:103F8000A104B14763F3F404B14463E2B4042A89A1
:103F9000EF00F0139387C18398433A8439E0938705
:103FA00001849C4391E781454A85152F23A0A18474
:103FB000A6854A852D27FD5963193507B14723206A
:103FC000F9004A85EF00D01029A0E3D004FCB147E6
:103FD0001CC10145F2406244D2444249B2490561E4
:103FE00082801C40858F63CF0702AD4663F6F600E2
:103FF0001CC03E9404C031A05C406313870223AE12
:10400000F1824A85EF00D00C1305B40093074400F9
:1040100061993307F5405DDF3A94898F1CC05DBF1D
:104020005CC3C5B72287404095BF13043500719823
:10403000E30285FCB305A4404A855525E31C35FB06
:10404000B5BF1C46FD171CC663DA0700184E63C5D2
:10405000E700A9476394F5006FF09F811C422E850D
:104060001387170018C28CA38280011122CC26CAA4
:104070004AC84EC652C406CE2A89AE893284B304D9
:10408000D6007D5A63149400014501A80C204E8689
:104090004A85453F0504E31745FFF2406244D24498
:1040A0004249B249224A05618280357122CD26CB30
:1040B0004AC94EC706CF52C556C35AC1DEDEE2DC3E
:1040C000E6DAAA89AE843289368409C51C4D99E3A3
:1040D000EFF03FBA97170000938707A66397F40C99
:1040E00083A44900DE24A18BFDC39C48EDC3930744
:1040F0000002A304F1029307000302D22305F10298
:1041000022C6930B5002971A0000938AEAA6054C28
:10411000294B4A841C2099C3639E770DB30C24411C
:10412000638D0C00E6864A86A6854E853D3FFD5789
:10413000630FF51C9256E69636D21C206389071C45
:10414000FD571309140002C802CE3ECA02CCA309CF
:10415000010482D48345090015465685A92F13040E
:104160001900C24751E913F7070109C713070002F5
:10417000A309E10413F7870009C71307B002A309D5
:10418000E104834609001307A002638FE606F247A5
:104190004A8481462546182093051400130707FD1D
:1041A0006377E60AB5CA3ECE85A8971700009387C5
:1041B000A79A6395F40083A489002DB79717000090
:1041C00093878795E390F4F283A4C90021BFA68565
:1041D0004E85EFF0AFF501DD7D55FA406A44DA44D3
:1041E0004A49BA492A4A9A4A0A4BF65B665CD65C47
:1041F0000D618280050439BF330555413315AC008C
:10420000C98F3EC82289B9B7324793064700184381
:1042100036C6634707023ACE18209307E002631DB3
:10422000F70418309307A002631BF702B247090492
:10423000138747009C433AC663C107023ECA2DA8B4
:104240003307E04093E727003ACE3EC8F1B7B38783
:10425000670385462E84BA973DBFFD57C5B7050451
:1042600002CA81468147254618209305140013078A
:1042700007FD6374E606F9F20C200D4617150000E1
:10428000130505900D2D11CD971700009387478FCB
:104290001D8D93070004B397A700424505045D8D6B
:1042A0002AC80C201946171500001305A58D1309FF
:1042B00014002304B102012535C197C7FFFF93877E
:1042C00067D495E74247B2471377071009CF9107A4
:1042D0003EC69257D2973ED22DBDB387670385461F
:1042E0002E84BA9751B79D07E19BA107D5B77800F7
:1042F000970600009386A6D726860C084E85970061
:104300000000E7000000FD572A8AE314F5FCDE24D4
:1043100093F70704E39207EC1255C1B578009706AE
:1043200000009386C6D426860C084E85012AE1BF7C
:10433000797156CA9C49BA8A984522D426D24ECE63
:1043400052CC06D64AD05AC85EC6AA892E84B284F8
:10435000368A63D3E700BA879CC00347340419C385
:1043600085079CC01C4093F7070281C79C408907C2
:104370009CC00329040013796900631A0900130B18
:104380009401FD5B5C449840998F634CF9041C4098
:104390008346340493F70702B336D000A5EB130627
:1043A0003404D2854E85829AFD576303F5041C4080
:1043B00011469840998B544481446397C700B38455
:1043C000E64063D3040081441C4418486354F7005A
:1043D000998FBE94014969047D5B6398240501456A
:1043E00009A885465A86D2854E85829A631E750134
:1043F0007D55B250225492540259F249624AD24A2F
:10440000424BB24B456182800509ADBF3307D400F2
:1044100013060003A301C70403475404938716003F
:10442000A2978906A381E7049DBF85462286D2858F
:104430004E85829AE30E65FB050945B7797122D452
:1044400026D24AD04ECE06D652CC56CA5AC8B689C3
:10445000942D930790063289AA842E8413863504FE
:10446000638DF60263E2D706930780056386F6182C
:1044700063EDD700638E062093073004638EF60A3F
:10448000930A24042301D404C9A09307300663854A
:10449000F60A93074006E395F6FE1C40084393F6A0
:1044A000070893054500C5C61C410CC363D8070027
:1044B0001307D002B307F040A301E40497060000FD
:1044C0009386C66C294765A8930700076382F61692
:1044D00063E5D7029307E0066389F6189307F006B1
:1044E000E390F6FA0C401C4313F8050813854700C7
:1044F0006307080608C39C4385A893075007E38316
:10450000F6FE930780076389F61293073007E39955
:10451000F6F61C43D04181459386470014C383AA15
:1045200007005685492E01C53305554148C05C40FA
:104530001CC8A301040461A81C43930A24049386A5
:1045400047009C4314C32301F4048547D5B793F671
:1045500007041C410CC3B9DAC207C18781BF93F5B8
:10456000050408C3C9D99E231307F0066387E60E26
:1045700097060000938686612947A30104044C40F6
:104580000CC463C5050008406D9908C099E3B28A60
:1045900089CDB28AB3F5E702FD1AB6958C21238046
:1045A000BA00B3D5E70263F0E70CA147631EF7003A
:1045B0001C40858B91CB58401C4863C7E70093078C
:1045C0000003A38FFAFEFD1A3306564110C84E872A
:1045D000CA867000A2852685EFF09FD57D5A631D9F
:1045E000450B7D55B250225492540259F249624A09
:1045F000D24A424B45618280A382D50497060000CF
:104600009386C6580C40084313F805081C41110551
:10461000630D080208C313F7150001C793E50502EF
:104620000CC04147B9FB0C4093F5F5FD0CC0B1B788
:104630009C4193E707029CC193078007A302F404FF
:10464000970600009386C65575BF13F8050408C386
:10465000E30308FCC207C1837DBF97060000938671
:10466000E652214719BFAE8735B794411C43CC4968
:1046700013F80608138547006306080008C39C4327
:104680008CC339A008C393F606049C43F5DA8EA3C5
:1046900023280400B28A25BF14485686CA85268579
:1046A0008299E30045F51C40898B8DE7B247484469
:1046B000E35AF5F23E853DB785465686CA8526857E
:1046C0008299E30065F3050A5C443247998FE3451C
:1046D000FAFEE9BF014A930A94017D5BF5B74111E7
:1046E00022C42A842E8597E7FF1F23A107AE06C6A2
:1046F000EFE01FF3FD576319F50097E7FF1F93875E
:10470000E7AC9C4391C31CC0B2402244410182806B
:10471000411122C42E848395E50006C65D2A6349B3
:1047200005007C48AA977CC8B2402244410182809F
:104730005E247D777D17F98F5EA4FDB7DE2501111C
:1047400022CC26CA4AC84EC606CE93F70710AA84C2
:104750002E843289B68991C78395E5008946014642
:104760000D225E247D777D17F98F5EA48315E4000A
:104770006244F240CE864A86B24942492685D244F6
:10478000056125A8411122C42E848395E50006C643
:10479000CD28FD575A24631AF500FD77FD17F98FD0
:1047A0005EA4B2402244410182808567D98F5EA415
:1047B00068C8C5BF8395E50025A8411122C42A8495
:1047C0002E85B285368697E7FF1F23A107A006C670
:1047D000EFE0FFDDFD576319F50097E7FF1F9387B3
:1047E000E79E9C4391C31CC0B24022444101828099
:1047F000411122C42A842E8597E7FF1F23A8079C16
:1048000006C61122FD576319F50097E7FF1F93872E
:10481000E79B9C4391C31CC0B2402244410182806B
:10482000411122C42A842E85B28597E7FF1F23AF4A
:10483000079806C6CD20FD576319F50097E7FF1FBF
:104840009387C7989C4391C31CC0B2402244410146
:104850008280411122C42A842E8597E7FF1F23A757
:10486000079606C6C920FD576319F50097E7FF1F95
:104870009387C7959C4391C31CC0B2402244410119
:104880008280411122C42A842E85B285368697E71C
:10489000FF1F23AD079206C67928FD576319F5005F
:1048A00097E7FF1F938787929C4391C31CC0B24038
:1048B00022444101828093F5F50F2A966314C500C6
:1048C000014582801C21E38EB7FE0505C5BF8280AD
:1048D0008280411122C42A842E85B285368697E7CC
:1048E000FF1F23A5078E06C6B928FD576319F500DB
:1048F00097E7FF1F9387878D9C4391C31CC0B240ED
:104900002244410182809307800517E7FF1F232F70
:10491000F78A7D5582809307800517E7FF1F2327BD
:10492000F78A7D5582809307800517E7FF1F232FA5
:10493000F788014582809307800517E7FF1F23272B
:10494000F7887D5582809307800517E7FF1F232F87
:10495000F7867D5582800000686172646661756CBF
:10496000740D000053797374656D436C6B3A256464
:104970000D0A00004368697049443A253038780DC3
:104980000A00000053696D756C61746520555342CF
:104990002D434443204465766963652072756E6ECD
:1049A000696E67206F6E20555342485320436F6EE7
:1049B00074726F6C6C65720D00000000B610000020
:1049C000BA0E0000C2110000820F0000C2110000E8
:1049D000680E0000820B0000C21100007A0E000079
:1049E000A20E000096100000CA110000FC0D00008D
:1049F000AA0B0000C00B0000660C0000FC0D0000BC
:104A0000FC0D0000EE0C00000C0D0000FC0D000081
:104A1000FC0D0000FC0D0000FC0D0000FC0D000072
:104A2000FC0D0000FC0D0000040D0000120100024E
:104A300002000040861A0CFE010001020301000082
:104A40000902430002010080320904000001020251
:104A500001000524001001052401000104240202C4
:104A60000524060001070583034000010904010035
:104A7000020A00000007050202400000070582024A
:104A800040000000090243000201008032090400D6
:104A900000010202010005240010010524010001AB
:104AA00004240202052406000107058303400001D7
:104AB00009040100020A00000007050202000200CA
:104AC00007058202000200000E0377006300680001
:104AD0002E0063006E0000001603550053004200D4
:104AE0002000530065007200690061006C00000046
:104AF0001603300031003200330034003500360038
:104B000037003800390000000A060002FFFFFF40AE
:104B10000100000000000000000000000000000094
:104B20000000000000000000000000000000000085
:104B30000000000000000000000000000000000075
:104B40000000000000000000000000000000000065
:104B50000000000000000000000000000000000055
:104B60000000000000000000000000000000000045
:104B700000000000232D302B20000000686C4C004A
:104B80006566674546470000303132333435363785
:104B90003839414243444546000000003031323349
:104BA0003435363738396162636465660000000069
:104BB00009070000000000000000000000000000E5
:104BC00000000000000000000000000000000000E5
:104BD00000000000000000000000000000000000D5
:104BE00000000000000000000000000000000000C5
:104BF00000000000090700000000000000000000A5
:104C000000000000000000000000000000000000A4
:104C10000000000000000000000000000000000094
:104C20000000000000000000000000000000000084
:104C30000000000000000000000000000000000074
:104C40000102030406070809000000000102030432
:104C5000010203040607080900000000344B0000AD
:104C6000544B0000144B0000000000000000000046
:104C70000000000000000000000000000000000034
:104C80000000000000000000000000000000000024
:104C90000000000000000000000000000000000014
:104CA0000000000000000000000000000000000004
:104CB000000000000000000000D8B805020406084B
:104CC000CC210020A800002004030904A800002033
:00000001FF
