:040000006F00106A13
:100004000000000000000000341E0000941F0000E7
:10001400000000009E0E0000000000000000000030
:100024009E0E00009E0E0000000000000000000074
:100034009E0E0000000000009E0E00000000000064
:100044009E0E00009E0E00009E0E00009E0E0000FC
:100054009E0E00009E0E00009E0E00009E0E0000EC
:100064009E0E00009E0E00009E0E00009E0E0000DC
:100074009E0E00009E0E00009E0E00009E0E0000CC
:100084009E0E00009E0E00009E0E00009E0E0000BC
:100094009E0E00009E0E00009E0E00009E0E0000AC
:1000A4009E0E00009E0E00009E0E00009E0E00009C
:1000B400381E00009E0E00009E0E00009E0E0000E2
:1000C4009E0E00009E0E00009E0E00009E0E00007C
:1000D4009E0E00009E0E00009E0E00009E0E00006C
:1000E4009E0E00009E0E00009E0E00009E0E00005C
:1000F4009E0E00009E0E00009E0E00009E0E00004C
:10010400000000009E0E00009E0E00009E0E0000E7
:100114009E0E00009E0E00009E0E00009E0E00002B
:100124009E0E00009E0E00009E0E0000A81E000001
:100134009E0E00009E0E00009E0E00009E0E00000B
:100144009E0E00009E0E00009E0E00009E0E0000FB
:100154009E0E00006A1400009E0E00009E0E000019
:100164009E0E00009E0E00009E0E00009E0E0000DB
:100174009E0E00009E0E00009E0E00009E0E0000CB
:100184009E0E00009E0E00009E0E00009E0E0000BB
:100194009E0E00009E0E00009E0E00009E0E0000AB
:1001A400000000000000000000000000000000004B
:0C01B4000000000000000000000000003F
:1001C0002A8309CA83830500230073007D16050373
:1001D00085056DFA82802A8311C62300B3007D163F
:1001E000050365FE828083A7018137177A00130714
:1001F0000720B3D7E70293F7F70F2381F1821307A4
:10020000803EB387E7022390F1828280B7F700E057
:10021000D843799BD8C303C721823306A7028146FE
:1002200090CBD4CB98431367070198C398431367C7
:10023000170298C3B7F700E0DC43858BE5DF37F79B
:1002400000E01C43F99B1CC38280797106D622D43E
:100250002A84854511651105412793070020231A3B
:10026000F1008D473ECCE1473ECE4C0837150140AA
:1002700013050580512922C2231401002315010012
:100280002316010023180100A1472317F1004C0099
:100290003744014013050480EF00302E85451305D7
:1002A0000480EF003039B250225445618280011140
:1002B00006CE22CC26CA4AC84EC62E84B2898144B4
:1002C00005A8930500043745014013050580EF009C
:1002D000303B65D91309140083050400C205C181B0
:1002E0003745014013050580EF00F03885044A8446
:1002F000E3C934FD4E85F2406244D2444249B249DA
:1003000005618280AA871705002003252520AA976A
:10031000172700201307072E63EDE700177700204B
:100320001307474E6369F700170700202320F71EC5
:1003300082807D5582807D558280B776004083A77C
:100340000640056779173317A7001347F7FF7D8F1E
:100350009C41D041D18F9045D18FD045D18F3395DD
:10036000A700598D23A0A640828081CDB77600409A
:1003700083A7064005473317A700D98F23A0F6406F
:100380008280B776004003A706408547B397A70051
:1003900093C7F7FFF98F23A0F6408280411102C670
:1003A000B7770040938707403EC6B247AA97A10798
:1003B0003EC6B2478CC3410182801C414167791718
:1003C000F98F1CC1232005002322050023240500EA
:1003D00023260500B7070240A1076308F50CB707FD
:1003E0000240F107630AF50CB70702409387070341
:1003F000630BF50CB707024093874704630EF50CB7
:10040000B707024093878705630FF50CB7070240D3
:100410009387C7066301F50EB70702409387070865
:100420006303F50EB7070240938787406305F50E17
:10043000B70702409387C7416308F50EB70702402C
:1004400093870743630BF50EB70702409387474432
:100450006300F510B7070240938787456303F510E3
:10046000B70702409387C7466307F510B7070240F6
:1004700093870748630BF510B70702409387074936
:10048000630FF510B70702409387074A6302F5121E
:10049000B70702409387074B6305F512B707024081
:1004A0009387074C630AF5128280370702405C434A
:1004B00093E7F7005CC38280370702405C4393E711
:1004C000070F5CC38280B7060240DC420567130752
:1004D00007F0D98FDCC28280370702405C43BD66DB
:1004E000D58F5CC38280370702405C43B7060F009C
:1004F000D58F5CC38280370702405C43B706F000AB
:10050000D58F5CC38280370702405C43B706000F7B
:10051000D58F5CC38280B707024003A747401367AB
:10052000F70023A2E7408280B707024003A74740B5
:100530001367070F23A2E7408280B707024003A793
:1005400047408566938606F0558F23A2E740828058
:10055000B707024003A74740BD66558F23A2E74077
:100560008280B707024003A74740B7060F00558FA8
:1005700023A2E7408280B707024003A74740B7069F
:10058000F000558F23A2E7408280B707024003A7FF
:100590004740B706000F558F23A2E7408280B70778
:1005A000024003A7474D1367F70023AAE74C828058
:1005B000B707024003A7474D1367070F23AAE74C6D
:1005C0008280B70702409387074DD843856693869C
:1005D00006F0558FD8C38280B70702409387074D36
:1005E000D843BD66558FD8C3C1B51841E177BD0763
:1005F0007D8F9C459451D58F9449D58FD449D58F03
:10060000944DD58FD44DD58FD451D58F9455D58F4A
:10061000D98F1CC1DC455CC19C411CC5DC415CC55B
:1006200082802320050023220500232405002326A1
:10063000050023280500232A0500232C0500232E6E
:1006400005002320050223220502232405028280BF
:1006500091C51C4193E717001CC182801C41416772
:100660007917F98F1CC1828009C61C41CD8F1CC12E
:1006700082801C4193C5F5FFED8F1CC18280B707B6
:100680000010E98F89CBB707024083A707407D8D13
:1006900011C105458280B7070020E98F91C7B707D0
:1006A000024083A7074DE5B7B70702409C43C5B793
:1006B000B7070010E98F91C7B707024023A2A740F0
:1006C0008280B7070020E98F91C7B707024023AAAD
:1006D000A74C8280B7070240C8C38280B7070010CA
:1006E000E98F91C7B707024023A2A7408280B707CE
:1006F0000020E98F91C7B707024023AAA74C828048
:10070000B7070240C8C382809C4593F8F700C18BAD
:1007100081C7DC41B3E8F80083C70500A1CF0328F7
:100720000500014719A05CC905079D4763E2E7047E
:100730008547B397E70083D60500FD8EE396D7FE85
:1007400013162700BD46B396C60093C6F6FF33F8CE
:1007500006013396C80033680601944513068002EB
:10076000E383C6FC13068004E390C6FC1CC96DBF7E
:100770002320050103D705009307F00F63F1E70677
:1007800003284500014739A090459306800463047F
:10079000D60405079D4763E2E70493068700854773
:1007A000B397D70083D60500FD8EE394D7FE1316CA
:1007B0002700BD46B396C60093C6F6FF33F8060180
:1007C0003396C80033680601904593068002E31D06
:1007D000D6FA5CC955BF1CC96DBF232205018280B2
:1007E0000CC9828023A2A1828280B7170240DC4319
:1007F000B18B11476383E70821476386E70899C7F0
:10080000B7177A00938707201CC131A0B7177A0069
:10081000938707201CC1371602405C429183BD8B31
:1008200097F6FF1F9386067EB69703C707001C4105
:10083000B3D7E7005CC1584221831D8B369703472D
:10084000070033D7E70018C558422D831D8BBA9691
:1008500003C70600B3D7E7005CC5584239830D8B48
:10086000970600209386C6CA36970347070013777A
:10087000F70FB3D7E7021CC98280B7177A009387B6
:1008800007201CC149BF371702405C435843C1666B
:10089000758FC983BD8B8907B7F6FF1F83A6C67006
:1008A0001166F18E85E6C5466386D70481462DE341
:1008B0003747024003270780418B39C337177A0037
:1008C00013070720B387E7021CC161A88946638E1E
:1008D000D700BD46638DD700C1466380D7028146ED
:1008E0004546E396C7FCC147D9B7C947F5B7854622
:1008F000B547FDB78146C9475DBF8146BD4745BF86
:1009000037173D0013070790B387E7021CC191A872
:100910003717024058574166718F59C3B7150240C7
:10092000D05511823D8A050637177A001307072034
:100930003357C70218C1D05521823D8A0DEA1316DC
:1009400027003297058318C11041371702405857C6
:100950003D8B05073357E60218C11841B307F7026C
:100960001CC1E38A06EA1C4185831CC16DB585451F
:10097000630AB600BD45630FB60009063307C70218
:1009800018C1D9B7131617003A960E063297058389
:1009900018C15DBF1316270032970A0718C16DB73B
:1009A0003717024050573D8A050637177A0013075C
:1009B00007203357C70218C14DB799C537170240F2
:1009C0005C4BC98F5CCB8280371702405C4B134570
:1009D000F5FFE98F5CCB828099C5371702401C4F29
:1009E000C98F1CCF8280371702401C4F1345F5FF7B
:1009F000E98F1CCF828099C5371702405C4FC98FA1
:100A00005CCF8280371702405C4F1345F5FFE98FBA
:100A10005CCF828099C5371702405C47C98F5CC79D
:100A20008280371702405C471345F5FFE98F5CC7AA
:100A3000828099C5371702401C4BC98F1CCB82801E
:100A4000371702401C4B1345F5FFE98F1CCB828002
:100A5000B7170240D857B70600F9FD16758FD8D7DB
:100A6000D8576205498FD8D78280B7170240D85728
:100A7000B70600F8FD16758FD8D7D8576E05498F81
:100A8000D8D78280B7170240D857B70600D0FD16D6
:100A9000758FD8D7D8577205498FD8D7828009C9A2
:100AA000371702405C57B7060040D58F5CD782806D
:100AB000B7160240DC56370700C07D17F98FDCD629
:100AC0008280B7170240D857B7060080FD16758F91
:100AD000D8D7D8577E05498FD8D78280411106C60E
:100AE00022C4B7370140938707C0630BF506B737B9
:100AF0000140938707406302F508B7570140938789
:100B000007C06303F508B75701406308F508B70746
:100B10000040630DF508B707004093870740630E58
:100B2000F508B717004093870780630FF508B717DC
:100B30000040938707C06300F50AB71700406303BE
:100B4000F50AB7170040938707406314F5028545FF
:100B500013050002F93D814513050002D93D11A896
:100B600085450564130504807535814513050480AA
:100B70005535B24022444101828085450965593D81
:100B800081450965413DF5B785453705080059356B
:100B9000814537050800BD3DE9BF85453705100093
:100BA000953D814537051000B535E1B785450545CB
:100BB000493581450545B53D6DBF85450945953D9F
:100BC00081450945BD3575B7854511459D3581453B
:100BD0001145853579BF85452145A13D8145214593
:100BE000893D41BF85454145A935814541459135FF
:100BF00049B783570500C207C18337370140130740
:100C000007C06306E504370700406302E5041307E5
:100C10000740630EE502371700401307078063089B
:100C2000E50237170040130707C06302E5023737B4
:100C3000014013070740630CE500375701401307D5
:100C400007C06306E500375701406317E50093F7D7
:100C5000F7F803D72500D98F37170040630DE5005B
:100C6000130707406309E50093F7F7CFC207C18375
:100C700003D76500D98F2310F50083D745002316CD
:100C8000F50283D705002314F502B7370140938797
:100C900007C06302F502B737014093870740630C32
:100CA000F500B7570140938707C06306F500B757B3
:100CB00001406316F50083C785002318F5028547B8
:100CC000231AF500828081C98357050093E7170036
:100CD0002310F500828083570500C207C183F99B6A
:100CE000C207C1832310F500828019C68357C5004F
:100CF000CD8F2316F50082808357C50093C5F5FF7D
:100D0000FD8D2316B500828019C68357C500CD8F8F
:100D10002316F50082808357C50093C5F5FFFD8D2E
:100D20002316B500828081C98357050093E7070821
:100D30002310F500828083570500C207C18393F713
:100D4000F7F7C207C1832310F5008280835745005F
:100D5000C207C18393F7F7F8C207C1832312F500D6
:100D600083574500CD8F2312F500828093C5F5FF90
:100D7000C205C1812318B5008280797106D622D4BC
:100D800026D22A84AE840357050183D76500F57601
:100D9000FD16758FD98F2318F5000357C50083D62C
:100DA000450003D6850083D7A500D18ED58FFD766B
:100DB0009386369F758FD98F2316F500835745018B
:100DC000C207C18303D7C50093F7F7CFD98F231A82
:100DD000F5006800193CB747014093870780630915
:100DE000F404524793171700BA978E07BA979840A2
:100DF0000A07B3D7E7029306400633D7D702931505
:100E00004700370600107D16718F3307D702998F80
:100E1000920793872703B3D7D702BD8BCD8FC20725
:100E2000C1832314F400B25022549254456182804D
:100E300062474DBF91C98357C5000967D98FC20763
:100E4000C1832316F50082808357C50079777D170B
:100E5000F98F2316F500828019C683574501CD8F7F
:100E6000231AF50082808357450193C5F5FFFD8D58
:100E7000231AB500828093F5F51F2312B5008280F6
:100E800083570500ED8F99C3054582800145828017
:100E900093C5F5FFC205C1812310B500828001A072
:100EA00097010020938181E61771002013018115BD
:100EB000172500001305853B97F5FF1F93858514C3
:100EC0001386018263FAC5008322050023A0550022
:100ED00011059105E3EAC5FE1385018297150020EF
:100EE000938545716377B500232005001105E36DF7
:100EF000B5FEFD42739002BCAD4273904280996290
:100F0000938282087390023097F2FFFF9382C20FA0
:100F100093E2320073905230EF108043971200003A
:100F20009382A2287390123473002030411106C6B8
:100F30008545114555348545370502006D3C85458D
:100F40000545553C854505458D3C0145B24041016F
:100F50008280011106CE02C202C4231601003705A9
:100F60000040AD3E930730062314F10083A70181B2
:100F700037470F0013070724B3D7E702FD172312E3
:100F8000F10023150100231301004C003705004038
:100F90008D31854537050040D13B054685453705F0
:100FA0000040A133B7E700E0056723A2E7108545BD
:100FB00037050040093BF24005618280397106DE49
:100FC00022DC26DA4AD84ED652D456D25AD0AA8932
:100FD0002E89B28402C802CA02CC02CE02C202C466
:100FE00002C691453714014013050480EFF04FFF0E
:100FF000114B231261010D4A52C4C14A56C64C001E
:1010000013050480EFF04FF0374700408357C74087
:10101000C207C183CD9BC207C1832316F740A147F6
:101020002312F100930780043EC64C001305048090
:10103000EFF08FED2312610152C4E1473EC64C0030
:1010400013050480EFF04FECE1772312F10052C456
:1010500056C64C0013050480EFF00FEB4EC8231A60
:1010600001008547630DF9048947630EF904231BCA
:1010700001008547638DF40489476382F406231CCD
:101080000100231E0100B147231DF1000C08374465
:10109000004013050440D5319305000413050440B6
:1010A000C53B8545130504407133F2506254D25458
:1010B0004259B259225A925A025B216182808D674D
:1010C000231BF1007DB78967231BF1005DB79307F0
:1010D0000060231CF1008567231AF1005DB79307B8
:1010E0000040231CF1008567231AF10059BF938744
:1010F00001462390070023910700239207002383D2
:1011000007007947A383E70023940700239507008E
:1011100023960700814719A8939617001387014665
:10112000369723170700850793F7F70F0547E375F1
:10113000F7FE9387014623890700239A0700239B24
:101140000700238C0700239D0700238E0700A38E32
:10115000070023A6018223A4018205C993870146C3
:10116000238F0700130720FCA38FE7000547238088
:10117000E702A380070223810702A3810702214718
:101180002382E7027947A382E7028280397106DE73
:1011900022DC26DA4AD8AE84328402C202C402C6F5
:1011A00002C802CA02CC02CE02D002D202D402D6B7
:1011B00031E93709024013050908EFF00FA0B747DE
:1011C0000040938747403EC226C4C1473EC622C85E
:1011D00002CA930700083ECC02CE02D002D2856735
:1011E0003ED402D64C0013050908EFF00FC0854528
:1011F00013050908EFF0CFC5F2506254D25442599A
:1012000021618280370902401305C906EFF0EF9A89
:10121000B7470040938747403EC226C402C622C853
:1012200002CA930700083ECC02CE02D09307000208
:101230003ED285673ED402D64C001305C906EFF0B6
:10124000CFBA85451305C906EFF08FC075B70111F8
:1012500006CE22CC26CA4AC84EC652C456C22A84DA
:10126000AE843289B689014693050004374A0040AE
:1012700013050A40D5368145B70A02401385CA06D0
:10128000EFF00FBD814513850A08EFF06FBC4E8665
:10129000CA85268525330146938501060145FD351E
:1012A00005661306068097F5FF1F9385252C0545D7
:1012B000F13D05469305000413050A40713E228561
:1012C0003D35F2406244D2444249B249224A924AF0
:1012D00005618280411106C69387014603C7170244
:1012E000620783C60702C206369783C6F701A206C5
:1012F00083C5E701B69503C6270283C63702BA95B0
:101300000145B137B73702401387010623A2E742F0
:1013100003C7374E1377C70FA381E74E03C7374E76
:101320001377F70FA381E74EB2404101828041114C
:1013300006C60545EFF0EFF80145EFF00FF3054560
:10134000EFF00FF10545EFF0EFF30545EFF02FF566
:101350008545056513050580EFF02FE6B240410194
:101360008280B73702409387074037070C00310768
:1013700098CB13070004239CE70813070020239051
:10138000E70A2392E70A170700201307E721D8CFBF
:101390001387C14998D713870106D8D317070020B0
:1013A00013078700B8D3239C070C0947238DE70C4C
:1013B000A38D070C2390070E2381E70EA381070E50
:1013C0002392070E2383E70EA383070E814709A804
:1013D0001387C1483E9723000700850793F7F70F4F
:1013E0003D47E377F7FE8280411106C622C426C23C
:1013F00021CD3734024099472300F4402945EFE0DE
:10140000FFE08347044093F7B70F2300F440C14740
:10141000A300F440930790022300F4409307700266
:101420002301F4403D3F8347044093E70701230035
:10143000F440B7E700E03707200023A4E710B240EC
:10144000224492444101828037340240994723006C
:10145000F4402945EFE09FDB23000440B7E700E0BC
:101460003707200023A4E718D9BF1D71A2CEA6CC50
:10147000CACACEC882E686E48AE28EE012FE16FC74
:101480001AFA1EF82AF62EF432F236F03AEE3EEC54
:1014900042EA46E872E676E47AE27EE0B737024056
:1014A00003C7A7409387074083C7B700137427007B
:1014B000630A042A93F7F70F13F707036309071664
:1014C000930600026310D70293F7F7031307200275
:1014D000638BE70E130730026382E71213070002E3
:1014E0006384E704B737024009472385E7409387C1
:1014F00007407644E6445649C6493660A660166100
:1015000086617272E2725273C2733275A27512767C
:1015100082767267E2675268C268326EA26E126F9C
:10152000826F25617300203083D7818391E7B737BD
:1015300002402147A38DE74C83C7E18393F7070659
:10154000D5F383C7F18315476383E706194763978C
:10155000E70603D781839307F00363E5E70003D42D
:10156000818319A0130400041389018483240900D2
:101570002286A6851705002013050503EFE05FC44A
:101580001387818383570700818FC207C18323108C
:10159000F700A29423209900B7370240239C874C80
:1015A00003C7A74D13478700238DE74C25BF03C70B
:1015B0006183B7370240A381E7402DB7B7370240B8
:1015C000239C074C05B7B737024003C7274E137754
:1015D000C70F136727002381E74E03C7274E134722
:1015E00087002381E74E1387C1488347270093F77D
:1015F000E70F2301F700238C0146EDB5B737024012
:1016000003C7674E1377C70F136727002383E74E7F
:1016100003C7674E134787002383E74E1387C148EC
:101620008347370093F7E70FA301F70065BD13F772
:10163000F70349CB8947E317F7EAB736024083C778
:10164000364E93C78700A381F64E13870146834722
:101650008700034697002206D18F03D6C64086072F
:10166000BA979375F60F03C5E7002387B700218269
:1016700083C5F700A387C700834787000346970009
:101680002206D18F850713960701418293F7F70F42
:10169000834587002304F70093578600034697008D
:1016A000A304F70097070020938707F423A2F642CC
:1016B00085472383F18483D7C640938606402392CF
:1016C000F1840DB537370240130707400357C700B1
:1016D00093F70704E38807E083C7E18393F70706DE
:1016E00089CB239C018203C7F18393070002630E19
:1016F000F70083D78183E39707DEB7370240239C47
:10170000074C2147238DE74CF1BB17070020130737
:10171000A7E98346070093870146238FD7008346B6
:101720001700A38FD700834627002380D702834664
:101730003700A380D702834647002381D702834620
:101740005700A381D702034767002382E702794746
:10175000A382E70203C777001377F70FA382E7029C
:10176000953E41BF9376F70F93F706026382075EBB
:10177000B73702402947238DE74CA38DE74C9707E5
:101780000020938767E283C607001387E183230065
:10179000D70083C61700A38FD18283D66700239C0E
:1017A000D18283D62700239ED18283D74700239DF1
:1017B000F1828344070093F40406C5CC83C7E18318
:1017C00093F70702D9C783C7F18313071002638D0C
:1017D000E706637CF7009387E7FD93F7F70F05476C
:1017E0006379F7001304F00F29A01307000263992F
:1017F000E70603D781839307F00363E9E70683D9FC
:10180000818313890184832409004E86A6851705E8
:101810000020130565D9EFE0BF9ACE9423209900EC
:101820009307F00F630CF42C8387E18363C0074EAA
:1018300083D7818363980750B7370240239C074CB6
:101840002147238DE74CD1A49387E14723A0F1845E
:101850004DB703C7E1831377070411C73E8451BF17
:101860001304F00F79B71304F00F61B79309000464
:1018700049BF03C4F183AD4763E28728931724006F
:101880001727000013078783BA979C43BA9782876C
:1018900083D7C183A1831D476366F71E8A07172775
:1018A00000001307A784BA979C43BA9782879727AB
:1018B00000009387E79223A0F18483C70700268462
:1018C00003D7818363F4E700239CF18203D78183EC
:1018D0009307F00363ECE71A83D9818355AAB737DE
:1018E00002409387074083C787008D8B0547638D30
:1018F000E7022389018293070004239AF18203C738
:1019000021838547630AF702172700001307078919
:1019100023A0E18483472700034737002207BA97B3
:10192000C207C183268469BF85472389F182930753
:101930000020239AF182E1B7172700001307C7811F
:1019400023A0E18483472700034737002207BA9783
:10195000C207C1832684ADB703D7C1831374F70FC1
:101960008947630EF40463E4870239C08547631C2A
:10197000F400971700009387277D23A0F18483C785
:101980000700268435BF81471304F00F15BF8D472C
:10199000631CF400971700009387077823A0F18455
:1019A00083C70700268429BF81471304F00F09BFAE
:1019B0009387818123A0F18483C7070011B797170C
:1019C00000009387E77623A0F18483C7070026846D
:1019D000C5BD971700009387677323A0F18483C761
:1019E00007002684F1BD03C7218385476309F700FB
:1019F00003C4218339C481471304F00FD1B51717ED
:101A000000001307A7798347270003473700220701
:101A10003384E7001306E4FF9715000093852578CB
:101A200017E5FF1F1305255FEFE08FF997E7FF1F0D
:101A30009387475E23A0F18493170401C183268412
:101A400041B5171700001307277183472700034785
:101A500037002207B384E7001386E4FF97150000E0
:101A60009385A56F17E5FF1F1305255FEFE04FF581
:101A700097E7FF1F9387475E23A0F18493970401A4
:101A8000C1833DBD81471304F00F1DBD93090004C0
:101A900013890184832409004E86A685170500203A
:101AA000130585B0EFE0CFF1CE94232099008DBBD4
:101AB00083D7C183238BF18285BB83C771831707CB
:101AC00000202303F7AE03D781838547E3FEE7D4E5
:101AD000239CF18291BB83D7C183A38BF18285477D
:101AE0002388F18291B383C7E183FD8BA9E383D778
:101AF000C18393F7F70F05476382E702B7370240C8
:101B00002D47238DE74CA38DE74CB73702401307D1
:101B100000022385E74093870740E1BA13871183CA
:101B20008347070093F7E70F2300F700F5B983C752
:101B3000E183FD8B0947E393E7FC83D7C18393F7E8
:101B4000F70FCDFF83D7A18393F7F70F1307200873
:101B5000638EE700130730086380E7020947E39FBD
:101B6000E7F8B7370240A381074E7DB9B737024087
:101B700009472381E74E4DB9B73702400947238310
:101B8000E74E5DB183C7E183FD8B85EB83D7C183CE
:101B900093F7F70F0547E393E7F69717000083C71E
:101BA000576093F70702B9DB138711838347070058
:101BB00093E717002300F70085B983C7E183FD8B06
:101BC0000947E393E7C683D7C18393F7F70FE39DF4
:101BD00007C483D7A18393F7F70F13072008638205
:101BE000E702130730086387E7020947E398E7F045
:101BF000B737024003C7374E13673700A381E74E5C
:101C000025B1B737024003C7274E1367370023813A
:101C1000E74E19B9B737024003C7674E136737005D
:101C20002383E74E11B197070020238F079603D730
:101C300081838547E3FAE7BE239CF182F5B69707D7
:101C400000209387679623800700A380070083C73F
:101C5000E183FD8B09476382E70283C7E183FD8B44
:101C600095EF03C71183137417000DC80947970632
:101C70000020238BE6923E8415A083D7A18393F79F
:101C8000F70F130720086383E70213073008638FF9
:101C9000E7040947638CE7021304F00F03D781833D
:101CA0008947E3FFE7B6239CF1829DBEB737024028
:101CB0009387074083C7270E8D8B0D47E390E7FE80
:101CC0008547170700202301F78EC9BFB7370240A9
:101CD0009387074083C7370E8D8B0D47E390E7FC52
:101CE0008547170700202301F78C4DBFB737024007
:101CF0009387074083C7670E8D8B0D47E390E7FA04
:101D00008547170700202301F78A49BF03D781833E
:101D10009307000463E5E70203D7818393868183F9
:101D200083D70600998FC207C1832390F600B73787
:101D30000240239CE74C2147238DE74CF9B313075E
:101D40000004E9BFB73702402147A38DE74C75BBBC
:101D500093F716009DEB93F74600A5CBB7370240EB
:101D600011472385E7409387074083C79700918BEE
:101D7000B9C39387118303C7070013672700238024
:101D8000E70083C707006FF0CFF6A38B0182238B98
:101D90000182A38801822388018237340240A30193
:101DA0000440EFF00FDC0545EFF06FB485472305E5
:101DB000F4406FF00FF4138711838347070093F704
:101DC000D70F2300F7006FF0CFF2B737024023851B
:101DD000D740938707406FF0CFF1411106C622C468
:101DE00026C22E8497040020938404002E86AA85A0
:101DF0002685EFE0EFBCB7E600E03706200023A41D
:101E0000C618B737024023A097462390874E03C7D2
:101E1000274E1377C70F2381E74E03C7274E13774B
:101E2000F70F2381E74E23A4C610B2402244924408
:101E3000410182807300203083C77184A5C33717A6
:101E40000140A1662328D78093C71700A383F1849C
:101E50009387014603C7670005071377F70F2383AE
:101E6000E70003C7A70183C6B701A206558F050780
:101E700093160701C1821377F70F03C6A701238DBD
:101E8000E70013D7860083C6B701A38DE700B70725
:101E9000004079572398E70073002030371701403E
:101EA000A166232AD7804DB75D7182E686E48AE277
:101EB0008EE012FE16FC1AFA1EF82AF62EF432F202
:101EC00036F03AEE3EEC42EA46E872E676E47AE232
:101ED0007EE037250010EFE08FFA0DED374500105A
:101EE000EFE0EFF949E13660A66016618661727233
:101EF000E2725273C2733275A2751276827672677D
:101F0000E2675268C268326EA26E126F826F6161C0
:101F10007300203037250010EFE08FF937250010CF
:101F2000EFE0CFFB970500209385056C83D7A18058
:101F30002392F5003715004013050540EFE07FCBF5
:101F40001387C18083570700FD17C207C183231081
:101F5000F700C9D781453705024013054544EFE036
:101F60002FEFA520A5BF37450010EFE06FF43745F0
:101F70000010EFE0AFF6970500209385E56683D764
:101F800081802392F5003715004013050540EFE0EE
:101F90005FC691BF5D7182E686E48AE28EE012FE42
:101FA00016FC1AFA1EF82AF62EF432F236F03AEE41
:101FB0003EEC42EA46E872E676E47AE27EE0171505
:101FC000000013052523212501A0397106DE22DC3E
:101FD00002C202C402C602C802CA02CC02CE02D0A9
:101FE00002D202D402D685450945EFE01F9D480084
:101FF000EFE02FE397E7FF1F9387470A3EC2B777CB
:102000000040938707413EC402C6930700203EC8A4
:10201000930700043ECA02CC930700103ECE02D0C4
:1020200002D28D673ED402D64C003704024013051D
:102030004444EFE08FDB37250010EFE06FE7054603
:10204000994513054444EFE02FE237450010EFE0D7
:102050002FE637E700E08567938707802324F7287A
:102060002324F710854513054444EFE06FDEF2505A
:10207000625421618280797106D622D402CA02CCD0
:1020800002CE02C202C402C602C885451145EFE075
:10209000BF94854537050020EFE0FF95C147231A1F
:1020A000F10002CE8D473ECC4C0837140140130599
:1020B0000480EFE06FE5C14513050480EFE04FF2C7
:1020C00002C202C402C689473EC84C000145EFE087
:1020D000CFA685450145EFE04FA981452145EFE0B9
:1020E000EFABB250225445618280011106CE22CC62
:1020F00026CA4AC82A89AE8402C202C402C68545DD
:10210000056513054580EFE03F8D85451305000209
:10211000EFE07F8EC1472312F10002C68D473EC417
:102120004C003715014013050580EFE0EFDD170483
:1021300000201304644B2312240123109400231362
:10214000040023110400A285B71400401385044045
:10215000EFE03FAAA28537340140130504C0EFE049
:102160005FA9854513850440EFE0FFBB930500029E
:1021700013850440EFE09FBD0546930500101385CD
:102180000440EFE07FB8854513850440EFE0BFB31E
:102190008545130504C0EFE01FB3F2406244D2440A
:1021A000424905618280411106C622C40945EFE01B
:1021B0006FE3ED2AEFE02F83716413050420EFE055
:1021C000CF88553D81451305F00F0537FD3BEFE006
:1021D000FFD5EFE01FD88146014693050420054551
:1021E000EFF0EF86EFF0AF940545EFF0EF9FA945D4
:1021F000171500001305C500CD3683C76184F5DFD0
:102200002383018403D741849547E3F8E7FE97F7DA
:10221000FF1F9387673D03C7070083C71700A20707
:10222000D98F0D47E37BF7FC17F7FF1F1307C73B59
:1022300083462700034737002207558F8D46E3FE6C
:10224000E6FA97F6FF1F9386263A03C6460083C632
:102250005600A206D18ED5D22396D1802395F18047
:102260002394E18097050020938505382392F5009B
:102270003715004013050540EFE0BF97814537054E
:10228000024013054544EFE0AFBC8133BDB74111B7
:1022900002C602C4371702401C43C166D58F1CC357
:1022A000B71702409C4337070200F98F3EC4B2477C
:1022B00085073EC6A24789E732478567E312F7FEE6
:1022C000B71702409C4337070200F98F89CB854737
:1022D0003EC4224785476306F7004101828002C45D
:1022E000CDBFB7170240D843D8C3D843D8C3D843CB
:1022F00013670740D8C3D843B706C1FFFD16758FD3
:10230000D8C3D843C166558FD8C39843B7060001D8
:10231000558F98C3B71702409C4337070002F98FC7
:10232000F5DBB7170240D843719BD8C3D843136776
:102330002700D8C3B7170240DC43B18B2147E39B8A
:10234000E7FE61BF411106C69937B2404101828064
:10235000411106C6B717024098431367170098C388
:10236000D843B706FFF8758FD8C39843B706F7FE72
:10237000FD16758F98C39843B706FCFFFD16758F41
:1023800098C3D843B70681FFFD16758FD8C398430D
:10239000B70600ECFD16758F98C33707FF0098C786
:1023A00023A607024537B24041018280B717024099
:1023B000DC43B18B11476386E7042147638AE70456
:1023C00081CBB7177A009387072023A8F18039A023
:1023D000B7177A009387072023A8F180B717024028
:1023E000DC439183BD8B17E7FF1F1307270BBA97B9
:1023F00083C60700138701811C43B3D7D7001CC3D2
:102400008280B7177A009387072023A8F180F9B755
:10241000371702405C435843C166758FC983BD8B33
:10242000890789466382D704BD466381D704C146C4
:102430006381D704814645466380C70429EB37474B
:10244000024003270780418B15CB37177A0013070B
:102450000720B387E70223A8F180C9D2138701813F
:102460001C4385831CC39DBFC947D1B78546B5476B
:10247000D9B78146BD47D9B7C147C9B737173D005E
:1024800013070790B387E70223A8F180F9B737173E
:102490000240584337060200718F11CB37173D00B9
:1024A00013070790B387E70223A8F1807DB737179A
:1024B0007A0013070720B387E70223A8F18071BFD2
:1024C000011126CA06CE22CC4AC84EC652C4AA84DE
:1024D00019E11C4502901C4D2E89A5E799239C4CBF
:1024E0008044B5C397170000938747D66310F4065E
:1024F000C0407C50858B81EB8357C40093F7072045
:1025000099E3284C612D8357C400A18B99C31C48C3
:10251000C5E7A2852685412245C1FD547C50858BA7
:1025200081EB8357C40093F7072099E3284C852D4E
:10253000F24062444249B249224A2685D2440561AA
:102540008280004545B72685E92969BF97170000B5
:102550009387C7CD6314F400804461BF97170000D0
:102560009387C7CAE317F4F8C04461B71CC40509D0
:1025700063C907021C401387170018C02380B700E7
:102580001C4483450900FD17F5F11CC463D90702FB
:102590002286A94526858120FD57E300F5F8A94448
:1025A000B5BF184C63C4E700E39645FD2286268537
:1025B0001D20E31735FD95B7FD59294AD1B71C40B9
:1025C0001387170018C029472380E700C9BFAA85D1
:1025D00003A54181F5B5011122CC26CA4AC806CE11
:1025E0004EC6AA842E89328401C51C4D91E315295B
:1025F00097170000938787C56318F402C0401C4CEE
:102600001CC48357C400A18B99C31C4895EFA285B5
:102610002685512015C97D59F2406244D244B24901
:102620004A8542490561828097170000938707C059
:102630006314F4008044E1B797170000938707BD47
:10264000E31FF4FAC04465BF1C4808409379F90FB2
:102650001379F90F1D8D5C486346F500A285268528
:10266000A52455F91C440505FD171CC41C401387FF
:10267000170018C0238037015C486389A70083577F
:10268000C400858BD1DBA947E318F9F8A28526851C
:10269000252C59D149B7411122C426C24AC006C6C9
:1026A00083A441812A892E8489C49C4C99E3268580
:1026B0008D2E97170000938767B96314F402C0400A
:1026C0008317C40013F787002DEB13F7070115EBF1
:1026D00025472320E90093E707042316F4007D55DE
:1026E00059A897170000938767B46314F4008044D7
:1026F000C1BF97170000938767B1E313F4FCC04490
:10270000C1B7918B8DC74C5889C993074404638422
:10271000F5004A856123232A04028357C40023223B
:10272000040093F7B7FD2316F4001C481CC0835720
:10273000C40093E787002316F4001C4881EF8357F9
:10274000C4001307002093F707286385E700A285DC
:102750004A8565218317C40013F717001DC3584825
:10276000232404003307E04018CC1848014501E752
:1027700013F707082DF3B240224492440249410165
:10278000828013F72700814611E3544814C4F1BF37
:102790008397C500011122CC26CA06CE4AC84EC670
:1027A00013F78700AA842E8469E7D8416345E000C7
:1027B000B8416358E008585449C7B18303A90400DD
:1027C000858B23A004000C50B9CB70488357C400FC
:1027D000918B99C75C401D8E5C5899C33C401D8EFF
:1027E0005C540C50814626858297FD57630DF50495
:1027F0001C480567232204001CC08357C400F98FBE
:1028000091C368C84C5823A0240185CD9307440484
:102810006384F50026855921232A04021DA0014660
:10282000854626850297FD572A86E311F5FA9C40D6
:10283000D1DF75476385E70059476395E70623A015
:1028400024010145BDA098408317C40001CFF5467F
:102850006305D700D9466319D7041C482322040016
:102860001CC04DB71848B1832322040018C0858BC3
:1028700041BF83A90501E38609FC03A905008D8BEF
:1028800023A0350133093941014791E3D84918C4E0
:10289000E35920FB1C540C50CA864E86268582972D
:1028A0006340A0028317C40093E707042316F400D3
:1028B0007D55F2406244D2444249B249056182806A
:1028C000AA993309A940E9B79C49411106C622C417
:1028D00026C281EB8144B2402244268592444101C4
:1028E0008280AA842E8401C51C4D91E31D2A97176E
:1028F00000009387A795631DF402C0408317C400AE
:10290000F1DB7850058B11E793F7072099E3284C0A
:1029100071242685A285AD3D7C50AA84858BC5FF98
:102920008357C40093F70720DDF7284C8D2C65B73B
:10293000971700009387878F6314F40080447DBF4E
:10294000971700009387878CE31AF4FAC0447DB789
:10295000411122C406C62A842316B5002317C500D8
:102960002320050023220500232405002322050639
:1029700023280500232A0500232C05002146814534
:102980001305C505EFD03F85970700009387675370
:102990005CD0970700009387C7551CD497070000A9
:1029A0009387075A5CD4970700009387C75CB240AF
:1029B00000D01CD8224441018280970500009385F5
:1029C000E5F0BDA2411126C2930780069384F5FF6E
:1029D000B384F4024AC02E8922C406C693854407F4
:1029E0007D262A8401CD23200500232225013105DF
:1029F00008C4138684068145EFD0EFFDB2402285DE
:102A0000224492440249410182801385C18479A203
:102A10001385C18469A21385018549A213850185A7
:102A2000BDAA411122C406C62A84F5371C4C89C7A9
:102A30002244B2404101DDB797070000938727F891
:102A40001CD423240404232604042328040483A779
:102A5000C1816394870085471CCC22853D2048C0F6
:102A60002285252008C422850D2048C448400146FF
:102A70009145F93D08440546A545D93D48440946D8
:102A8000C945F93585471CCC65B7411126C24AC0F6
:102A900006C622C42A89953F83A4C1819C4C99E330
:102AA00026854137938484048044DC40FD1763D637
:102AB00007009C40BDC38440C5BF0317C40039EB69
:102AC000C17785075CC41305840523220406F12021
:102AD00081372146232004002324040023220400FC
:102AE00023280400232A0400232C04008145130515
:102AF000C405EFD04FEE232A0402232C0402232422
:102B0000040423260404B24022852244924402494C
:102B1000410182801304840651BF91454A855D3589
:102B200088C02A8449F9ED35B1472320F900E1BF77
:102B3000797122D44AD04ECE52CC5AC85EC606D63F
:102B400026D256CA2A892E8A130485048149054B48
:102B5000FD5B0444832A4400FD1A63D00A0200404E
:102B60006DF8B250225492540259624AD24A424BF2
:102B7000B24B4E85F2494561828083D7C400637BA6
:102B8000FB008397E40063877701A6854A85029A54
:102B9000B3E9A90093848406C1B7828082808280D1
:102BA0005971A2D42E848395E500A6D2CAD086D6C8
:102BB000B284368963D305028357C40093F70708AC
:102BC0008DEB13070040B65026542320F90098C01F
:102BD000065996540145656182803000FD26E34D1B
:102BE00005FC3247BD67F98F7977BA9793B717001D
:102BF000C9BF814713070004F9B783D7C5007971AE
:102C000022D406D626D24AD04ECE898B2E8491CF9E
:102C1000930774041CC01CC885475CC8B25022547A
:102C200092540259F2494561828074003000AA84AE
:102C3000853FA2492A892685CE85912A01ED8317F1
:102C4000C40013F7072079FBF19B93E727002316B5
:102C5000F4007DBF97070000938767D69CD4835705
:102C6000C40008C008C893E707082316F400B24759
:102C7000232A340189CF8315E40026859D2E01C9BE
:102C80008357C400F19B93E717002316F400835782
:102C9000C40033E527012316A40049B7D1CD83A78B
:102CA000C5FF011122CC06CE1384C5FF63D30700F4
:102CB0003E942AC67926138781851C43324581EBD1
:102CC0002322040000C36244F2400561BDAE637D6F
:102CD000F4001040B306C4006396D7009443DC436D
:102CE000B29614C05CC0F9BF3E87DC4399C3E37D54
:102CF000F4FE14433306D700631F86001040B296DB
:102D000014C33306D700E390C7FC9043DC43B2966C
:102D100014C35CC34DBF6375C400B1471CC165B724
:102D20001040B306C4006396D7009443DC43B296C8
:102D300014C05CC040C341BF828041114AC01389A6
:102D400041858327090022C426C206C6AA842E8490
:102D500089E7814589222320A900A2852685252A85
:102D60007D59631A25017D54B24022852244924444
:102D7000024941018280130435007198E30685FE03
:102D8000B305A4402685012AE31025FFE9BF011100
:102D900026CA93843500F1984AC806CE22CC4EC686
:102DA000A104B1472A8963F3F406B14463E2B4068F
:102DB0004A85412C9389818583A709003E8425E4B7
:102DC000A6854A859D3FFD572A846314F50C03A40C
:102DD0000900A287D5E78329040081454A85A29985
:102DE0005D286392A90A1C408D049D8CF198A10472
:102DF000B14763F3F400B144A6854A853D3FFD57D2
:102E00006303F5081C40A6971CC03DA8E3D004FA54
:102E1000B1472320F9000145F2406244D2444249BF
:102E2000B249056182801440858E63C806042D472F
:102E3000637DD70204C0330794006396870223A002
:102E4000E9005C4014C35CC34A8501241305B40047
:102E50009307440061993307F540E30FF5FA3A947C
:102E6000898F1CC055BFD8C3E9BF58406395870000
:102E700023A0E900D1BFD8C3C1BFA287404081B71A
:102E80003E84DC4381BFB1472320F9004A85752A7F
:102E900059B704C155BF411122C42A842E8523AEDF
:102EA000018406C6EFD00FC6FD576316F50083A751
:102EB000C18591C31CC0B2402244410182804111AE
:102EC00022C42E848395E50006C66122634905006D
:102ED0007C48AA977CC8B240224441018280835733
:102EE000C4007D777D17F98F2316F400EDB783D7E3
:102EF000C500011122CC26CA4AC84EC606CE93F799
:102F00000710AA842E843289B68991C78395E5007B
:102F10008946014611228357C4007D777D17F98FBA
:102F20008315E4002316F4006244F240CE864A86FC
:102F3000B24942492685D24405613DA8411122C4C7
:102F40002E848395E50006C6C1287D578357C400AB
:102F5000631BE5007D777D17F98F2316F400B240DF
:102F60002244410182800567D98F2316F40068C886
:102F7000FDB78395E5003DA0411122C42A842E852A
:102F8000B285368623AE018406C6EFD04FB2FD5718
:102F90006316F50083A7C18591C31CC0B2402244CB
:102FA00041018280411122C42A842E8523AE0184EE
:102FB00006C6E920FD576316F50083A7C18591C3B6
:102FC0001CC0B240224441018280411122C42A84A3
:102FD0002E85B28523AE018406C67D20FD5763167B
:102FE000F50083A7C18591C31CC0B24022444101B2
:102FF0008280411122C42A842E8523AE018406C614
:103000005128FD576316F50083A7C18591C31CC0E5
:10301000B240224441018280411122C42A842E857B
:10302000B285368623AE018406C69D28FD576316F9
:10303000F50083A7C18591C31CC0B2402244410161
:103040008280138581846FF07FB5138581846FF052
:103050001FB5411122C42A842E85B285368623AE3F
:10306000018406C6A120FD576316F50083A7C1851C
:1030700091C31CC0B2402244410182809307800565
:1030800023AEF1847D5582809307800523AEF184C1
:103090007D5582809307800523AEF18401458280AF
:1030A0009307800523AEF1847D55828093078005C8
:1030B00023AEF1847D55828086EBFFFF2EEAFFFF71
:1030C00044EAFFFFCCEAFFFF44EAFFFFF8E9FFFF15
:1030D000D8E7FFFF44EAFFFF02EAFFFF1EEAFFFF17
:1030E0006EEBFFFF70E7FFFF9CE9FFFFC6E7FFFF06
:1030F000F6E7FFFF70E8FFFF9CE9FFFF9CE9FFFF99
:10310000EAE8FFFFFEE8FFFF0A060002FFFFFF40BC
:10311000010000001603300031003200330034009B
:10312000350036003700380039000000160355001E
:1031300053004200200053006500720069006100E6
:103140006C0000000E037700630068002E0063002F
:103150006E000000090243000201008032090400F1
:1031600000010202010005240010010524010001F4
:103170000424020205240600010705830340000120
:1031800009040100020A0000000705020200020013
:1031900007058202000200000902430002010080CC
:1031A000320904000001020201000524001001059B
:1031B00024010001042402020524060001070583FE
:1031C0000340000109040100020A00000007050293
:1031D00002400000070582024000000012010002C8
:1031E00002000040861A0CFE0100010203010000EB
:1031F000686172646661756C740D000048692074C2
:1032000068657265210A00000000000000000000EF
:1032100000000000000000000000000000000000AE
:10322000000000000000000000000000000000009E
:10323000000000000000000000000000000000008E
:10324000000000000000000000000000000000007E
:10325000000000000000000000000000000000006E
:08326000000000000000000066
:103268000000000001020304010203040607080924
:103278000907000000000000000000000000000036
:103288000000000000000000000000000000000036
:103298000000000000000000000000000000000026
:1032A8000000000000000000000000000000000016
:1032B80000000000090700000000000000000000F6
:1032C80000000000000000000000000000000000F6
:1032D80000000000000000000000000000000000E6
:1032E80000000000000000000000000000000000D6
:1032F80000000000000000000000010002000300C0
:103308000400050006000700080009000A000B0079
:103318000C000D000E000F00100011001200130029
:103328001400150016001700180019001A001B00D9
:103338001C001D001E001F00200021002200230089
:103348002400250026002700280029002A002B0039
:103358002C002D002E002F003000310032003300E9
:103368003400350036003700380039003A003B0099
:103378003C003D003E003F00400041004200430049
:103388004400450046004700480049004A004B00F9
:103398004C004D004E004F005000510052005300A9
:1033A8005400550056005700580059005A005B0059
:1033B8005C005D005E005F00600061006200630009
:1033C8006400650066006700680069006A006B00B9
:1033D8006C006D006E006F00700071007200730069
:1033E8007400750076007700780079007A007B0019
:1033F8007C007D007E007F008000810082008300C9
:103408008400850086008700880089008A008B0078
:103418008C008D008E008F00900091009200930028
:103428009400950096009700980099009A009B00D8
:103438009C009D009E009F00A000A100A200A30088
:10344800A400A500A600A700A800A900AA00AB0038
:10345800AC00AD00AE00AF00B000B100B200B300E8
:10346800B400B500B600B700B800B900BA00BB0098
:10347800BC00BD00BE00BF00C000C100C200C30048
:10348800C400C500C600C700C800C900CA00CB00F8
:10349800CC00CD00CE00CF00D000D100D200D300A8
:1034A800D400D500D600D700D800D900DA00DB0058
:1034B800DC00DD00DE00DF00E000E100E200E30008
:1034C800E400E500E600E700E800E900EA00EB00B8
:1034D800EC00ED00EE00EF00F000F100F200F30068
:1034E800F400F500F600F700F800F900FA00FB0018
:1034F800FC00FD00FE00FF00FF00FE00FD00FC00D8
:10350800FB00FA00F900F800F700F600F500F400F7
:10351800F300F200F100F000EF00EE00ED00EC0027
:10352800EB00EA00E900E800E700E600E500E40057
:10353800E300E200E100E000DF00DE00DD00DC0087
:10354800DB00DA00D900D800D700D600D500D400B7
:10355800D300D200D100D000CF00CE00CD00CC00E7
:10356800CB00CA00C900C800C700C600C500C40017
:10357800C300C200C100C000BF00BE00BD00BC0047
:10358800BB00BA00B900B800B700B600B500B40077
:10359800B300B200B100B000AF00AE00AD00AC00A7
:1035A800AB00AA00A900A800A700A600A500A400D7
:1035B800A300A200A100A0009F009E009D009C0007
:1035C8009B009A0099009800970096009500940037
:1035D80093009200910090008F008E008D008C0067
:1035E8008B008A0089008800870086008500840097
:1035F80083008200810080007F007E007D007C00C7
:103608007B007A00790078007700760075007400F6
:1036180073007200710070006F006E006D006C0026
:103628006B006A0069006800670066006500640056
:1036380063006200610060005F005E005D005C0086
:103648005B005A00590058005700560055005400B6
:1036580053005200510050004F004E004D004C00E6
:103668004B004A0049004800470046004500440016
:1036780043004200410040003F003E003D003C0046
:103688003B003A0039003800370036003500340076
:1036980033003200310030002F002E002D002C00A6
:1036A8002B002A00290028002700260025002400D6
:1036B80023002200210020001F001E001D001C0006
:1036C8001B001A0019001800170016001500140036
:1036D80013001200110010000F000E000D000C0066
:1036E8000B000A0009000800070006000500040096
:1036F80003000200010000000000000000000000BC
:10370800010203040607080900000000483200000F
:10371800283200000832000000000000000000000D
:103728000000000000000000000000000000000091
:103738000000000000000000000000000000000081
:103748000000000000000000000000000000000071
:103758000000000000000000000000000000000061
:103768000000000000000000F02500200204060808
:103778000300FF000100000000449508A804002091
:0837880004030904A804002059
:00000001FF
